{
	"data": {
		"bytecode": {
			"linkReferences": {},
			"object": "608060405234801561000f575f80fd5b506001805f806006811115610027576100266101b6565b5b6006811115610039576100386101b6565b5b81526020019081526020015f2081905550600260015f60016006811115610063576100626101b6565b5b6006811115610075576100746101b6565b5b81526020019081526020015f2081905550600460015f6002600681111561009f5761009e6101b6565b5b60068111156100b1576100b06101b6565b5b81526020019081526020015f2081905550600860015f600360068111156100db576100da6101b6565b5b60068111156100ed576100ec6101b6565b5b81526020019081526020015f2081905550601060015f60046006811115610117576101166101b6565b5b6006811115610129576101286101b6565b5b81526020019081526020015f2081905550602060015f60056006811115610153576101526101b6565b5b6006811115610165576101646101b6565b5b81526020019081526020015f2081905550604060015f60068081111561018e5761018d6101b6565b5b60068111156101a05761019f6101b6565b5b81526020019081526020015f20819055506101e3565b7f4e487b71000000000000000000000000000000000000000000000000000000005f52602160045260245ffd5b612402806101f05f395ff3fe608060405234801561000f575f80fd5b506004361061007b575f3560e01c80639b23d3d9116100595780639b23d3d914610110578063a92197ab14610140578063b1960f5914610170578063f21c59f3146101a05761007b565b806315dacbea1461007f57806320531860146100af578063618dc65e146100df575b5f80fd5b6100996004803603810190610094919061106c565b6101be565b6040516100a691906110eb565b60405180910390f35b6100c960048036038101906100c49190611240565b6102d6565b6040516100d69190611296565b60405180910390f35b6100f960048036038101906100f4919061134d565b61031e565b60405161010792919061141f565b60405180910390f35b61012a6004803603810190610125919061106c565b610484565b60405161013791906110eb565b60405180910390f35b61015a60048036038101906101559190611477565b61059c565b6040516101679190611296565b60405180910390f35b61018a6004803603810190610185919061155e565b6108b6565b60405161019791906115db565b60405180910390f35b6101a861095c565b6040516101b591906116fe565b60405180910390f35b5f805f61016773ffffffffffffffffffffffffffffffffffffffff166315dacbea60e01b888888886040516024016101f9949392919061172d565b604051602081830303815290604052907bffffffffffffffffffffffffffffffffffffffffffffffffffffffff19166020820180517bffffffffffffffffffffffffffffffffffffffffffffffffffffffff838183161783525050505060405161026391906117aa565b5f604051808303815f865af19150503d805f811461029c576040519150601f19603f3d011682016040523d82523d5f602084013e6102a1565b606091505b5091509150816102b25760156102c7565b808060200190518101906102c691906117f6565b5b60030b92505050949350505050565b6003818051602081018201805184825260208301602085012081835280955050505050505f915054906101000a900473ffffffffffffffffffffffffffffffffffffffff1681565b5f60605f8061016773ffffffffffffffffffffffffffffffffffffffff1663618dc65e60e01b8787604051602401610357929190611821565b604051602081830303815290604052907bffffffffffffffffffffffffffffffffffffffffffffffffffffffff19166020820180517bffffffffffffffffffffffffffffffffffffffffffffffffffffffff83818316178352505050506040516103c191906117aa565b5f604051808303815f865af19150503d805f81146103fa576040519150601f19603f3d011682016040523d82523d5f602084013e6103ff565b606091505b50915091507f4af4780e06fe8cb9df64b0794fa6f01399af979175bb988e35e0e57e594567bc8282604051610435929190611869565b60405180910390a18161045857601560405180602001604052805f81525061046d565b8080602001905181019061046c9190611905565b5b8160030b9150809450819550505050509250929050565b5f805f61016773ffffffffffffffffffffffffffffffffffffffff16639b23d3d960e01b888888886040516024016104bf949392919061172d565b604051602081830303815290604052907bffffffffffffffffffffffffffffffffffffffffffffffffffffffff19166020820180517bffffffffffffffffffffffffffffffffffffffffffffffffffffffff838183161783525050505060405161052991906117aa565b5f604051808303815f865af19150503d805f8114610562576040519150601f19603f3d011682016040523d82523d5f602084013e610567565b606091505b50915091508161057857601561058d565b8080602001905181019061058c91906117f6565b5b60030b92505050949350505050565b5f80600167ffffffffffffffff8111156105b9576105b861111c565b5b6040519080825280602002602001820160405280156105f257816020015b6105df610eb0565b8152602001906001900390816105d75790505b5090506106026004600130610a30565b815f815181106106155761061461195f565b5b6020026020010181905250610628610ecf565b87815f018190525086816020018190525085816060018190525030816040019073ffffffffffffffffffffffffffffffffffffffff16908173ffffffffffffffffffffffffffffffffffffffff16815250506001816080019015159081151581525050848160a0019060070b908160070b81525050818160e001819052505f8160c00190151590811515815250506106c3306276a700610a67565b8161010001819052505f806106d783610abf565b91509150601660030b8214610721576040517f08c379a0000000000000000000000000000000000000000000000000000000008152600401610718906119fc565b60405180910390fd5b5f60605f5b8960070b8160070b1215610815575f8990505f600167ffffffffffffffff8111156107545761075361111c565b5b60405190808252806020026020018201604052801561078757816020015b60608152602001906001900390816107725790505b50905081815f8151811061079e5761079d61195f565b5b60200260200101819052506107b4865f83610c25565b809650819750829950505050601660030b8714610806576040517f08c379a00000000000000000000000000000000000000000000000000000000081526004016107fd90611a8a565b60405180910390fd5b50508080600101915050610726565b5060028c908060018154018082558091505060019003905f5260205f20015f9091909190915090816108479190611ca2565b508260038d6040516108599190611dab565b90815260200160405180910390205f6101000a81548173ffffffffffffffffffffffffffffffffffffffff021916908373ffffffffffffffffffffffffffffffffffffffff16021790555082965050505050505095945050505050565b600281815481106108c5575f80fd5b905f5260205f20015f9150905080546108dd90611ad5565b80601f016020809104026020016040519081016040528092919081815260200182805461090990611ad5565b80156109545780601f1061092b57610100808354040283529160200191610954565b820191905f5260205f20905b81548152906001019060200180831161093757829003601f168201915b505050505081565b60606002805480602002602001604051908101604052809291908181526020015f905b82821015610a27578382905f5260205f2001805461099c90611ad5565b80601f01602080910402602001604051908101604052809291908181526020018280546109c890611ad5565b8015610a135780601f106109ea57610100808354040283529160200191610a13565b820191905f5260205f20905b8154815290600101906020018083116109f657829003601f168201915b50505050508152602001906001019061097f565b50505050905090565b610a38610eb0565b6040518060400160405280610a4c86610d96565b8152602001610a5b8585610dd4565b81525090509392505050565b610a6f610f3a565b82816020019073ffffffffffffffffffffffffffffffffffffffff16908173ffffffffffffffffffffffffffffffffffffffff168152505081816040019060070b908160070b8152505092915050565b5f80825f8161010001515f015160070b148015610ae757505f8161010001516040015160070b145b15610b0a576276a70060030b8161010001516040019060070b908160070b815250505b5f8061016773ffffffffffffffffffffffffffffffffffffffff163463ea83f29360e01b88604051602401610b3f91906120cb565b604051602081830303815290604052907bffffffffffffffffffffffffffffffffffffffffffffffffffffffff19166020820180517bffffffffffffffffffffffffffffffffffffffffffffffffffffffff8381831617835250505050604051610ba991906117aa565b5f6040518083038185875af1925050503d805f8114610be3576040519150601f19603f3d011682016040523d82523d5f602084013e610be8565b606091505b509150915081610bfa5760155f610c0f565b80806020019051810190610c0e9190612126565b5b8160030b91508095508196505050505050915091565b5f8060605f8061016773ffffffffffffffffffffffffffffffffffffffff1663e0f4059a60e01b898989604051602401610c619392919061221f565b604051602081830303815290604052907bffffffffffffffffffffffffffffffffffffffffffffffffffffffff19166020820180517bffffffffffffffffffffffffffffffffffffffffffffffffffffffff8381831617835250505050604051610ccb91906117aa565b5f604051808303815f865af19150503d805f8114610d04576040519150601f19603f3d011682016040523d82523d5f602084013e610d09565b606091505b509150915081610d645760155f8067ffffffffffffffff811115610d3057610d2f61111c565b5b604051908082528060200260200182016040528015610d5e5781602001602082028036833780820191505090505b50610d79565b80806020019051810190610d789190612333565b5b8260030b9250809550819650829750505050505093509350939050565b5f60015f836006811115610dad57610dac61239f565b5b6006811115610dbf57610dbe61239f565b5b81526020019081526020015f20549050919050565b610ddc610f74565b60016004811115610df057610def61239f565b5b836004811115610e0357610e0261239f565b5b03610e455781816020019073ffffffffffffffffffffffffffffffffffffffff16908173ffffffffffffffffffffffffffffffffffffffff1681525050610eaa565b600480811115610e5857610e5761239f565b5b836004811115610e6b57610e6a61239f565b5b03610ea95781816080019073ffffffffffffffffffffffffffffffffffffffff16908173ffffffffffffffffffffffffffffffffffffffff16815250505b5b92915050565b60405180604001604052805f8152602001610ec9610f74565b81525090565b60405180610120016040528060608152602001606081526020015f73ffffffffffffffffffffffffffffffffffffffff168152602001606081526020015f151581526020015f60070b81526020015f1515815260200160608152602001610f34610f3a565b81525090565b60405180606001604052805f60070b81526020015f73ffffffffffffffffffffffffffffffffffffffff1681526020015f60070b81525090565b6040518060a001604052805f151581526020015f73ffffffffffffffffffffffffffffffffffffffff16815260200160608152602001606081526020015f73ffffffffffffffffffffffffffffffffffffffff1681525090565b5f604051905090565b5f80fd5b5f80fd5b5f73ffffffffffffffffffffffffffffffffffffffff82169050919050565b5f61100882610fdf565b9050919050565b61101881610ffe565b8114611022575f80fd5b50565b5f813590506110338161100f565b92915050565b5f819050919050565b61104b81611039565b8114611055575f80fd5b50565b5f8135905061106681611042565b92915050565b5f805f806080858703121561108457611083610fd7565b5b5f61109187828801611025565b94505060206110a287828801611025565b93505060406110b387828801611025565b92505060606110c487828801611058565b91505092959194509250565b5f8160070b9050919050565b6110e5816110d0565b82525050565b5f6020820190506110fe5f8301846110dc565b92915050565b5f80fd5b5f80fd5b5f601f19601f8301169050919050565b7f4e487b71000000000000000000000000000000000000000000000000000000005f52604160045260245ffd5b6111528261110c565b810181811067ffffffffffffffff821117156111715761117061111c565b5b80604052505050565b5f611183610fce565b905061118f8282611149565b919050565b5f67ffffffffffffffff8211156111ae576111ad61111c565b5b6111b78261110c565b9050602081019050919050565b828183375f83830152505050565b5f6111e46111df84611194565b61117a565b905082815260208101848484011115611200576111ff611108565b5b61120b8482856111c4565b509392505050565b5f82601f83011261122757611226611104565b5b81356112378482602086016111d2565b91505092915050565b5f6020828403121561125557611254610fd7565b5b5f82013567ffffffffffffffff81111561127257611271610fdb565b5b61127e84828501611213565b91505092915050565b61129081610ffe565b82525050565b5f6020820190506112a95f830184611287565b92915050565b5f67ffffffffffffffff8211156112c9576112c861111c565b5b6112d28261110c565b9050602081019050919050565b5f6112f16112ec846112af565b61117a565b90508281526020810184848401111561130d5761130c611108565b5b6113188482856111c4565b509392505050565b5f82601f83011261133457611333611104565b5b81356113448482602086016112df565b91505092915050565b5f806040838503121561136357611362610fd7565b5b5f61137085828601611025565b925050602083013567ffffffffffffffff81111561139157611390610fdb565b5b61139d85828601611320565b9150509250929050565b5f819050919050565b6113b9816113a7565b82525050565b5f81519050919050565b5f82825260208201905092915050565b8281835e5f83830152505050565b5f6113f1826113bf565b6113fb81856113c9565b935061140b8185602086016113d9565b6114148161110c565b840191505092915050565b5f6040820190506114325f8301856113b0565b818103602083015261144481846113e7565b90509392505050565b611456816110d0565b8114611460575f80fd5b50565b5f813590506114718161144d565b92915050565b5f805f805f60a086880312156114905761148f610fd7565b5b5f86013567ffffffffffffffff8111156114ad576114ac610fdb565b5b6114b988828901611213565b955050602086013567ffffffffffffffff8111156114da576114d9610fdb565b5b6114e688828901611213565b945050604086013567ffffffffffffffff81111561150757611506610fdb565b5b61151388828901611213565b935050606061152488828901611463565b925050608086013567ffffffffffffffff81111561154557611544610fdb565b5b61155188828901611213565b9150509295509295909350565b5f6020828403121561157357611572610fd7565b5b5f61158084828501611058565b91505092915050565b5f81519050919050565b5f82825260208201905092915050565b5f6115ad82611589565b6115b78185611593565b93506115c78185602086016113d9565b6115d08161110c565b840191505092915050565b5f6020820190508181035f8301526115f381846115a3565b905092915050565b5f81519050919050565b5f82825260208201905092915050565b5f819050602082019050919050565b5f82825260208201905092915050565b5f61163e82611589565b6116488185611624565b93506116588185602086016113d9565b6116618161110c565b840191505092915050565b5f6116778383611634565b905092915050565b5f602082019050919050565b5f611695826115fb565b61169f8185611605565b9350836020820285016116b185611615565b805f5b858110156116ec57848403895281516116cd858261166c565b94506116d88361167f565b925060208a019950506001810190506116b4565b50829750879550505050505092915050565b5f6020820190508181035f830152611716818461168b565b905092915050565b61172781611039565b82525050565b5f6080820190506117405f830187611287565b61174d6020830186611287565b61175a6040830185611287565b611767606083018461171e565b95945050505050565b5f81905092915050565b5f611784826113bf565b61178e8185611770565b935061179e8185602086016113d9565b80840191505092915050565b5f6117b5828461177a565b915081905092915050565b5f8160030b9050919050565b6117d5816117c0565b81146117df575f80fd5b50565b5f815190506117f0816117cc565b92915050565b5f6020828403121561180b5761180a610fd7565b5b5f611818848285016117e2565b91505092915050565b5f6040820190506118345f830185611287565b818103602083015261184681846113e7565b90509392505050565b5f8115159050919050565b6118638161184f565b82525050565b5f60408201905061187c5f83018561185a565b818103602083015261188e81846113e7565b90509392505050565b5f6118a96118a4846112af565b61117a565b9050828152602081018484840111156118c5576118c4611108565b5b6118d08482856113d9565b509392505050565b5f82601f8301126118ec576118eb611104565b5b81516118fc848260208601611897565b91505092915050565b5f806040838503121561191b5761191a610fd7565b5b5f611928858286016117e2565b925050602083015167ffffffffffffffff81111561194957611948610fdb565b5b611955858286016118d8565b9150509250929050565b7f4e487b71000000000000000000000000000000000000000000000000000000005f52603260045260245ffd5b7f6661696c656420746f20637265617465206e6f6e2d66756e6769626c6520746f5f8201527f6b656e0000000000000000000000000000000000000000000000000000000000602082015250565b5f6119e6602383611593565b91506119f18261198c565b604082019050919050565b5f6020820190508181035f830152611a13816119da565b9050919050565b7f6661696c656420746f206d696e74206e6f6e2d66756e6769626c6520746f6b655f8201527f6e00000000000000000000000000000000000000000000000000000000000000602082015250565b5f611a74602183611593565b9150611a7f82611a1a565b604082019050919050565b5f6020820190508181035f830152611aa181611a68565b9050919050565b7f4e487b71000000000000000000000000000000000000000000000000000000005f52602260045260245ffd5b5f6002820490506001821680611aec57607f821691505b602082108103611aff57611afe611aa8565b5b50919050565b5f819050815f5260205f209050919050565b5f6020601f8301049050919050565b5f82821b905092915050565b5f60088302611b617fffffffffffffffffffffffffffffffffffffffffffffffffffffffffffffffff82611b26565b611b6b8683611b26565b95508019841693508086168417925050509392505050565b5f819050919050565b5f611ba6611ba1611b9c84611039565b611b83565b611039565b9050919050565b5f819050919050565b611bbf83611b8c565b611bd3611bcb82611bad565b848454611b32565b825550505050565b5f90565b611be7611bdb565b611bf2818484611bb6565b505050565b5b81811015611c1557611c0a5f82611bdf565b600181019050611bf8565b5050565b601f821115611c5a57611c2b81611b05565b611c3484611b17565b81016020851015611c43578190505b611c57611c4f85611b17565b830182611bf7565b50505b505050565b5f82821c905092915050565b5f611c7a5f1984600802611c5f565b1980831691505092915050565b5f611c928383611c6b565b9150826002028217905092915050565b611cab82611589565b67ffffffffffffffff811115611cc457611cc361111c565b5b611cce8254611ad5565b611cd9828285611c19565b5f60209050601f831160018114611d0a575f8415611cf8578287015190505b611d028582611c87565b865550611d69565b601f198416611d1886611b05565b5f5b82811015611d3f57848901518255600182019150602085019450602081019050611d1a565b86831015611d5c5784890151611d58601f891682611c6b565b8355505b6001600288020188555050505b505050505050565b5f81905092915050565b5f611d8582611589565b611d8f8185611d71565b9350611d9f8185602086016113d9565b80840191505092915050565b5f611db68284611d7b565b915081905092915050565b611dca81610ffe565b82525050565b611dd98161184f565b82525050565b611de8816110d0565b82525050565b5f81519050919050565b5f82825260208201905092915050565b5f819050602082019050919050565b611e2081611039565b82525050565b5f82825260208201905092915050565b5f611e40826113bf565b611e4a8185611e26565b9350611e5a8185602086016113d9565b611e638161110c565b840191505092915050565b5f60a083015f830151611e835f860182611dd0565b506020830151611e966020860182611dc1565b5060408301518482036040860152611eae8282611e36565b91505060608301518482036060860152611ec88282611e36565b9150506080830151611edd6080860182611dc1565b508091505092915050565b5f604083015f830151611efd5f860182611e17565b5060208301518482036020860152611f158282611e6e565b9150508091505092915050565b5f611f2d8383611ee8565b905092915050565b5f602082019050919050565b5f611f4b82611dee565b611f558185611df8565b935083602082028501611f6785611e08565b805f5b85811015611fa25784840389528151611f838582611f22565b9450611f8e83611f35565b925060208a01995050600181019050611f6a565b50829750879550505050505092915050565b606082015f820151611fc85f850182611ddf565b506020820151611fdb6020850182611dc1565b506040820151611fee6040850182611ddf565b50505050565b5f61016083015f8301518482035f86015261200f8282611634565b915050602083015184820360208601526120298282611634565b915050604083015161203e6040860182611dc1565b50606083015184820360608601526120568282611634565b915050608083015161206b6080860182611dd0565b5060a083015161207e60a0860182611ddf565b5060c083015161209160c0860182611dd0565b5060e083015184820360e08601526120a98282611f41565b9150506101008301516120c0610100860182611fb4565b508091505092915050565b5f6020820190508181035f8301526120e38184611ff4565b905092915050565b5f6120f582610fdf565b9050919050565b612105816120eb565b811461210f575f80fd5b50565b5f81519050612120816120fc565b92915050565b5f806040838503121561213c5761213b610fd7565b5b5f612149858286016117e2565b925050602061215a85828601612112565b9150509250929050565b5f81519050919050565b5f82825260208201905092915050565b5f819050602082019050919050565b5f6121988383611e36565b905092915050565b5f602082019050919050565b5f6121b682612164565b6121c0818561216e565b9350836020820285016121d28561217e565b805f5b8581101561220d57848403895281516121ee858261218d565b94506121f9836121a0565b925060208a019950506001810190506121d5565b50829750879550505050505092915050565b5f6060820190506122325f830186611287565b61223f60208301856110dc565b818103604083015261225181846121ac565b9050949350505050565b5f815190506122698161144d565b92915050565b5f67ffffffffffffffff8211156122895761228861111c565b5b602082029050602081019050919050565b5f80fd5b5f6122b06122ab8461226f565b61117a565b905080838252602082019050602084028301858111156122d3576122d261229a565b5b835b818110156122fc57806122e8888261225b565b8452602084019350506020810190506122d5565b5050509392505050565b5f82601f83011261231a57612319611104565b5b815161232a84826020860161229e565b91505092915050565b5f805f6060848603121561234a57612349610fd7565b5b5f612357868287016117e2565b93505060206123688682870161225b565b925050604084015167ffffffffffffffff81111561238957612388610fdb565b5b61239586828701612306565b9150509250925092565b7f4e487b71000000000000000000000000000000000000000000000000000000005f52602160045260245ffdfea26469706673582212200f899634b2a8847bf591fe52d28b9370b75fa40260b714ed2cd9578f81318fa764736f6c634300081a0033",
			"opcodes": "PUSH1 0x80 PUSH1 0x40 MSTORE CALLVALUE DUP1 ISZERO PUSH2 0xF JUMPI PUSH0 DUP1 REVERT JUMPDEST POP PUSH1 0x1 DUP1 PUSH0 DUP1 PUSH1 0x6 DUP2 GT ISZERO PUSH2 0x27 JUMPI PUSH2 0x26 PUSH2 0x1B6 JUMP JUMPDEST JUMPDEST PUSH1 0x6 DUP2 GT ISZERO PUSH2 0x39 JUMPI PUSH2 0x38 PUSH2 0x1B6 JUMP JUMPDEST JUMPDEST DUP2 MSTORE PUSH1 0x20 ADD SWAP1 DUP2 MSTORE PUSH1 0x20 ADD PUSH0 KECCAK256 DUP2 SWAP1 SSTORE POP PUSH1 0x2 PUSH1 0x1 PUSH0 PUSH1 0x1 PUSH1 0x6 DUP2 GT ISZERO PUSH2 0x63 JUMPI PUSH2 0x62 PUSH2 0x1B6 JUMP JUMPDEST JUMPDEST PUSH1 0x6 DUP2 GT ISZERO PUSH2 0x75 JUMPI PUSH2 0x74 PUSH2 0x1B6 JUMP JUMPDEST JUMPDEST DUP2 MSTORE PUSH1 0x20 ADD SWAP1 DUP2 MSTORE PUSH1 0x20 ADD PUSH0 KECCAK256 DUP2 SWAP1 SSTORE POP PUSH1 0x4 PUSH1 0x1 PUSH0 PUSH1 0x2 PUSH1 0x6 DUP2 GT ISZERO PUSH2 0x9F JUMPI PUSH2 0x9E PUSH2 0x1B6 JUMP JUMPDEST JUMPDEST PUSH1 0x6 DUP2 GT ISZERO PUSH2 0xB1 JUMPI PUSH2 0xB0 PUSH2 0x1B6 JUMP JUMPDEST JUMPDEST DUP2 MSTORE PUSH1 0x20 ADD SWAP1 DUP2 MSTORE PUSH1 0x20 ADD PUSH0 KECCAK256 DUP2 SWAP1 SSTORE POP PUSH1 0x8 PUSH1 0x1 PUSH0 PUSH1 0x3 PUSH1 0x6 DUP2 GT ISZERO PUSH2 0xDB JUMPI PUSH2 0xDA PUSH2 0x1B6 JUMP JUMPDEST JUMPDEST PUSH1 0x6 DUP2 GT ISZERO PUSH2 0xED JUMPI PUSH2 0xEC PUSH2 0x1B6 JUMP JUMPDEST JUMPDEST DUP2 MSTORE PUSH1 0x20 ADD SWAP1 DUP2 MSTORE PUSH1 0x20 ADD PUSH0 KECCAK256 DUP2 SWAP1 SSTORE POP PUSH1 0x10 PUSH1 0x1 PUSH0 PUSH1 0x4 PUSH1 0x6 DUP2 GT ISZERO PUSH2 0x117 JUMPI PUSH2 0x116 PUSH2 0x1B6 JUMP JUMPDEST JUMPDEST PUSH1 0x6 DUP2 GT ISZERO PUSH2 0x129 JUMPI PUSH2 0x128 PUSH2 0x1B6 JUMP JUMPDEST JUMPDEST DUP2 MSTORE PUSH1 0x20 ADD SWAP1 DUP2 MSTORE PUSH1 0x20 ADD PUSH0 KECCAK256 DUP2 SWAP1 SSTORE POP PUSH1 0x20 PUSH1 0x1 PUSH0 PUSH1 0x5 PUSH1 0x6 DUP2 GT ISZERO PUSH2 0x153 JUMPI PUSH2 0x152 PUSH2 0x1B6 JUMP JUMPDEST JUMPDEST PUSH1 0x6 DUP2 GT ISZERO PUSH2 0x165 JUMPI PUSH2 0x164 PUSH2 0x1B6 JUMP JUMPDEST JUMPDEST DUP2 MSTORE PUSH1 0x20 ADD SWAP1 DUP2 MSTORE PUSH1 0x20 ADD PUSH0 KECCAK256 DUP2 SWAP1 SSTORE POP PUSH1 0x40 PUSH1 0x1 PUSH0 PUSH1 0x6 DUP1 DUP2 GT ISZERO PUSH2 0x18E JUMPI PUSH2 0x18D PUSH2 0x1B6 JUMP JUMPDEST JUMPDEST PUSH1 0x6 DUP2 GT ISZERO PUSH2 0x1A0 JUMPI PUSH2 0x19F PUSH2 0x1B6 JUMP JUMPDEST JUMPDEST DUP2 MSTORE PUSH1 0x20 ADD SWAP1 DUP2 MSTORE PUSH1 0x20 ADD PUSH0 KECCAK256 DUP2 SWAP1 SSTORE POP PUSH2 0x1E3 JUMP JUMPDEST PUSH32 0x4E487B7100000000000000000000000000000000000000000000000000000000 PUSH0 MSTORE PUSH1 0x21 PUSH1 0x4 MSTORE PUSH1 0x24 PUSH0 REVERT JUMPDEST PUSH2 0x2402 DUP1 PUSH2 0x1F0 PUSH0 CODECOPY PUSH0 RETURN INVALID PUSH1 0x80 PUSH1 0x40 MSTORE CALLVALUE DUP1 ISZERO PUSH2 0xF JUMPI PUSH0 DUP1 REVERT JUMPDEST POP PUSH1 0x4 CALLDATASIZE LT PUSH2 0x7B JUMPI PUSH0 CALLDATALOAD PUSH1 0xE0 SHR DUP1 PUSH4 0x9B23D3D9 GT PUSH2 0x59 JUMPI DUP1 PUSH4 0x9B23D3D9 EQ PUSH2 0x110 JUMPI DUP1 PUSH4 0xA92197AB EQ PUSH2 0x140 JUMPI DUP1 PUSH4 0xB1960F59 EQ PUSH2 0x170 JUMPI DUP1 PUSH4 0xF21C59F3 EQ PUSH2 0x1A0 JUMPI PUSH2 0x7B JUMP JUMPDEST DUP1 PUSH4 0x15DACBEA EQ PUSH2 0x7F JUMPI DUP1 PUSH4 0x20531860 EQ PUSH2 0xAF JUMPI DUP1 PUSH4 0x618DC65E EQ PUSH2 0xDF JUMPI JUMPDEST PUSH0 DUP1 REVERT JUMPDEST PUSH2 0x99 PUSH1 0x4 DUP1 CALLDATASIZE SUB DUP2 ADD SWAP1 PUSH2 0x94 SWAP2 SWAP1 PUSH2 0x106C JUMP JUMPDEST PUSH2 0x1BE JUMP JUMPDEST PUSH1 0x40 MLOAD PUSH2 0xA6 SWAP2 SWAP1 PUSH2 0x10EB JUMP JUMPDEST PUSH1 0x40 MLOAD DUP1 SWAP2 SUB SWAP1 RETURN JUMPDEST PUSH2 0xC9 PUSH1 0x4 DUP1 CALLDATASIZE SUB DUP2 ADD SWAP1 PUSH2 0xC4 SWAP2 SWAP1 PUSH2 0x1240 JUMP JUMPDEST PUSH2 0x2D6 JUMP JUMPDEST PUSH1 0x40 MLOAD PUSH2 0xD6 SWAP2 SWAP1 PUSH2 0x1296 JUMP JUMPDEST PUSH1 0x40 MLOAD DUP1 SWAP2 SUB SWAP1 RETURN JUMPDEST PUSH2 0xF9 PUSH1 0x4 DUP1 CALLDATASIZE SUB DUP2 ADD SWAP1 PUSH2 0xF4 SWAP2 SWAP1 PUSH2 0x134D JUMP JUMPDEST PUSH2 0x31E JUMP JUMPDEST PUSH1 0x40 MLOAD PUSH2 0x107 SWAP3 SWAP2 SWAP1 PUSH2 0x141F JUMP JUMPDEST PUSH1 0x40 MLOAD DUP1 SWAP2 SUB SWAP1 RETURN JUMPDEST PUSH2 0x12A PUSH1 0x4 DUP1 CALLDATASIZE SUB DUP2 ADD SWAP1 PUSH2 0x125 SWAP2 SWAP1 PUSH2 0x106C JUMP JUMPDEST PUSH2 0x484 JUMP JUMPDEST PUSH1 0x40 MLOAD PUSH2 0x137 SWAP2 SWAP1 PUSH2 0x10EB JUMP JUMPDEST PUSH1 0x40 MLOAD DUP1 SWAP2 SUB SWAP1 RETURN JUMPDEST PUSH2 0x15A PUSH1 0x4 DUP1 CALLDATASIZE SUB DUP2 ADD SWAP1 PUSH2 0x155 SWAP2 SWAP1 PUSH2 0x1477 JUMP JUMPDEST PUSH2 0x59C JUMP JUMPDEST PUSH1 0x40 MLOAD PUSH2 0x167 SWAP2 SWAP1 PUSH2 0x1296 JUMP JUMPDEST PUSH1 0x40 MLOAD DUP1 SWAP2 SUB SWAP1 RETURN JUMPDEST PUSH2 0x18A PUSH1 0x4 DUP1 CALLDATASIZE SUB DUP2 ADD SWAP1 PUSH2 0x185 SWAP2 SWAP1 PUSH2 0x155E JUMP JUMPDEST PUSH2 0x8B6 JUMP JUMPDEST PUSH1 0x40 MLOAD PUSH2 0x197 SWAP2 SWAP1 PUSH2 0x15DB JUMP JUMPDEST PUSH1 0x40 MLOAD DUP1 SWAP2 SUB SWAP1 RETURN JUMPDEST PUSH2 0x1A8 PUSH2 0x95C JUMP JUMPDEST PUSH1 0x40 MLOAD PUSH2 0x1B5 SWAP2 SWAP1 PUSH2 0x16FE JUMP JUMPDEST PUSH1 0x40 MLOAD DUP1 SWAP2 SUB SWAP1 RETURN JUMPDEST PUSH0 DUP1 PUSH0 PUSH2 0x167 PUSH20 0xFFFFFFFFFFFFFFFFFFFFFFFFFFFFFFFFFFFFFFFF AND PUSH4 0x15DACBEA PUSH1 0xE0 SHL DUP9 DUP9 DUP9 DUP9 PUSH1 0x40 MLOAD PUSH1 0x24 ADD PUSH2 0x1F9 SWAP5 SWAP4 SWAP3 SWAP2 SWAP1 PUSH2 0x172D JUMP JUMPDEST PUSH1 0x40 MLOAD PUSH1 0x20 DUP2 DUP4 SUB SUB DUP2 MSTORE SWAP1 PUSH1 0x40 MSTORE SWAP1 PUSH28 0xFFFFFFFFFFFFFFFFFFFFFFFFFFFFFFFFFFFFFFFFFFFFFFFFFFFFFFFF NOT AND PUSH1 0x20 DUP3 ADD DUP1 MLOAD PUSH28 0xFFFFFFFFFFFFFFFFFFFFFFFFFFFFFFFFFFFFFFFFFFFFFFFFFFFFFFFF DUP4 DUP2 DUP4 AND OR DUP4 MSTORE POP POP POP POP PUSH1 0x40 MLOAD PUSH2 0x263 SWAP2 SWAP1 PUSH2 0x17AA JUMP JUMPDEST PUSH0 PUSH1 0x40 MLOAD DUP1 DUP4 SUB DUP2 PUSH0 DUP7 GAS CALL SWAP2 POP POP RETURNDATASIZE DUP1 PUSH0 DUP2 EQ PUSH2 0x29C JUMPI PUSH1 0x40 MLOAD SWAP2 POP PUSH1 0x1F NOT PUSH1 0x3F RETURNDATASIZE ADD AND DUP3 ADD PUSH1 0x40 MSTORE RETURNDATASIZE DUP3 MSTORE RETURNDATASIZE PUSH0 PUSH1 0x20 DUP5 ADD RETURNDATACOPY PUSH2 0x2A1 JUMP JUMPDEST PUSH1 0x60 SWAP2 POP JUMPDEST POP SWAP2 POP SWAP2 POP DUP2 PUSH2 0x2B2 JUMPI PUSH1 0x15 PUSH2 0x2C7 JUMP JUMPDEST DUP1 DUP1 PUSH1 0x20 ADD SWAP1 MLOAD DUP2 ADD SWAP1 PUSH2 0x2C6 SWAP2 SWAP1 PUSH2 0x17F6 JUMP JUMPDEST JUMPDEST PUSH1 0x3 SIGNEXTEND SWAP3 POP POP POP SWAP5 SWAP4 POP POP POP POP JUMP JUMPDEST PUSH1 0x3 DUP2 DUP1 MLOAD PUSH1 0x20 DUP2 ADD DUP3 ADD DUP1 MLOAD DUP5 DUP3 MSTORE PUSH1 0x20 DUP4 ADD PUSH1 0x20 DUP6 ADD KECCAK256 DUP2 DUP4 MSTORE DUP1 SWAP6 POP POP POP POP POP POP PUSH0 SWAP2 POP SLOAD SWAP1 PUSH2 0x100 EXP SWAP1 DIV PUSH20 0xFFFFFFFFFFFFFFFFFFFFFFFFFFFFFFFFFFFFFFFF AND DUP2 JUMP JUMPDEST PUSH0 PUSH1 0x60 PUSH0 DUP1 PUSH2 0x167 PUSH20 0xFFFFFFFFFFFFFFFFFFFFFFFFFFFFFFFFFFFFFFFF AND PUSH4 0x618DC65E PUSH1 0xE0 SHL DUP8 DUP8 PUSH1 0x40 MLOAD PUSH1 0x24 ADD PUSH2 0x357 SWAP3 SWAP2 SWAP1 PUSH2 0x1821 JUMP JUMPDEST PUSH1 0x40 MLOAD PUSH1 0x20 DUP2 DUP4 SUB SUB DUP2 MSTORE SWAP1 PUSH1 0x40 MSTORE SWAP1 PUSH28 0xFFFFFFFFFFFFFFFFFFFFFFFFFFFFFFFFFFFFFFFFFFFFFFFFFFFFFFFF NOT AND PUSH1 0x20 DUP3 ADD DUP1 MLOAD PUSH28 0xFFFFFFFFFFFFFFFFFFFFFFFFFFFFFFFFFFFFFFFFFFFFFFFFFFFFFFFF DUP4 DUP2 DUP4 AND OR DUP4 MSTORE POP POP POP POP PUSH1 0x40 MLOAD PUSH2 0x3C1 SWAP2 SWAP1 PUSH2 0x17AA JUMP JUMPDEST PUSH0 PUSH1 0x40 MLOAD DUP1 DUP4 SUB DUP2 PUSH0 DUP7 GAS CALL SWAP2 POP POP RETURNDATASIZE DUP1 PUSH0 DUP2 EQ PUSH2 0x3FA JUMPI PUSH1 0x40 MLOAD SWAP2 POP PUSH1 0x1F NOT PUSH1 0x3F RETURNDATASIZE ADD AND DUP3 ADD PUSH1 0x40 MSTORE RETURNDATASIZE DUP3 MSTORE RETURNDATASIZE PUSH0 PUSH1 0x20 DUP5 ADD RETURNDATACOPY PUSH2 0x3FF JUMP JUMPDEST PUSH1 0x60 SWAP2 POP JUMPDEST POP SWAP2 POP SWAP2 POP PUSH32 0x4AF4780E06FE8CB9DF64B0794FA6F01399AF979175BB988E35E0E57E594567BC DUP3 DUP3 PUSH1 0x40 MLOAD PUSH2 0x435 SWAP3 SWAP2 SWAP1 PUSH2 0x1869 JUMP JUMPDEST PUSH1 0x40 MLOAD DUP1 SWAP2 SUB SWAP1 LOG1 DUP2 PUSH2 0x458 JUMPI PUSH1 0x15 PUSH1 0x40 MLOAD DUP1 PUSH1 0x20 ADD PUSH1 0x40 MSTORE DUP1 PUSH0 DUP2 MSTORE POP PUSH2 0x46D JUMP JUMPDEST DUP1 DUP1 PUSH1 0x20 ADD SWAP1 MLOAD DUP2 ADD SWAP1 PUSH2 0x46C SWAP2 SWAP1 PUSH2 0x1905 JUMP JUMPDEST JUMPDEST DUP2 PUSH1 0x3 SIGNEXTEND SWAP2 POP DUP1 SWAP5 POP DUP2 SWAP6 POP POP POP POP POP SWAP3 POP SWAP3 SWAP1 POP JUMP JUMPDEST PUSH0 DUP1 PUSH0 PUSH2 0x167 PUSH20 0xFFFFFFFFFFFFFFFFFFFFFFFFFFFFFFFFFFFFFFFF AND PUSH4 0x9B23D3D9 PUSH1 0xE0 SHL DUP9 DUP9 DUP9 DUP9 PUSH1 0x40 MLOAD PUSH1 0x24 ADD PUSH2 0x4BF SWAP5 SWAP4 SWAP3 SWAP2 SWAP1 PUSH2 0x172D JUMP JUMPDEST PUSH1 0x40 MLOAD PUSH1 0x20 DUP2 DUP4 SUB SUB DUP2 MSTORE SWAP1 PUSH1 0x40 MSTORE SWAP1 PUSH28 0xFFFFFFFFFFFFFFFFFFFFFFFFFFFFFFFFFFFFFFFFFFFFFFFFFFFFFFFF NOT AND PUSH1 0x20 DUP3 ADD DUP1 MLOAD PUSH28 0xFFFFFFFFFFFFFFFFFFFFFFFFFFFFFFFFFFFFFFFFFFFFFFFFFFFFFFFF DUP4 DUP2 DUP4 AND OR DUP4 MSTORE POP POP POP POP PUSH1 0x40 MLOAD PUSH2 0x529 SWAP2 SWAP1 PUSH2 0x17AA JUMP JUMPDEST PUSH0 PUSH1 0x40 MLOAD DUP1 DUP4 SUB DUP2 PUSH0 DUP7 GAS CALL SWAP2 POP POP RETURNDATASIZE DUP1 PUSH0 DUP2 EQ PUSH2 0x562 JUMPI PUSH1 0x40 MLOAD SWAP2 POP PUSH1 0x1F NOT PUSH1 0x3F RETURNDATASIZE ADD AND DUP3 ADD PUSH1 0x40 MSTORE RETURNDATASIZE DUP3 MSTORE RETURNDATASIZE PUSH0 PUSH1 0x20 DUP5 ADD RETURNDATACOPY PUSH2 0x567 JUMP JUMPDEST PUSH1 0x60 SWAP2 POP JUMPDEST POP SWAP2 POP SWAP2 POP DUP2 PUSH2 0x578 JUMPI PUSH1 0x15 PUSH2 0x58D JUMP JUMPDEST DUP1 DUP1 PUSH1 0x20 ADD SWAP1 MLOAD DUP2 ADD SWAP1 PUSH2 0x58C SWAP2 SWAP1 PUSH2 0x17F6 JUMP JUMPDEST JUMPDEST PUSH1 0x3 SIGNEXTEND SWAP3 POP POP POP SWAP5 SWAP4 POP POP POP POP JUMP JUMPDEST PUSH0 DUP1 PUSH1 0x1 PUSH8 0xFFFFFFFFFFFFFFFF DUP2 GT ISZERO PUSH2 0x5B9 JUMPI PUSH2 0x5B8 PUSH2 0x111C JUMP JUMPDEST JUMPDEST PUSH1 0x40 MLOAD SWAP1 DUP1 DUP3 MSTORE DUP1 PUSH1 0x20 MUL PUSH1 0x20 ADD DUP3 ADD PUSH1 0x40 MSTORE DUP1 ISZERO PUSH2 0x5F2 JUMPI DUP2 PUSH1 0x20 ADD JUMPDEST PUSH2 0x5DF PUSH2 0xEB0 JUMP JUMPDEST DUP2 MSTORE PUSH1 0x20 ADD SWAP1 PUSH1 0x1 SWAP1 SUB SWAP1 DUP2 PUSH2 0x5D7 JUMPI SWAP1 POP JUMPDEST POP SWAP1 POP PUSH2 0x602 PUSH1 0x4 PUSH1 0x1 ADDRESS PUSH2 0xA30 JUMP JUMPDEST DUP2 PUSH0 DUP2 MLOAD DUP2 LT PUSH2 0x615 JUMPI PUSH2 0x614 PUSH2 0x195F JUMP JUMPDEST JUMPDEST PUSH1 0x20 MUL PUSH1 0x20 ADD ADD DUP2 SWAP1 MSTORE POP PUSH2 0x628 PUSH2 0xECF JUMP JUMPDEST DUP8 DUP2 PUSH0 ADD DUP2 SWAP1 MSTORE POP DUP7 DUP2 PUSH1 0x20 ADD DUP2 SWAP1 MSTORE POP DUP6 DUP2 PUSH1 0x60 ADD DUP2 SWAP1 MSTORE POP ADDRESS DUP2 PUSH1 0x40 ADD SWAP1 PUSH20 0xFFFFFFFFFFFFFFFFFFFFFFFFFFFFFFFFFFFFFFFF AND SWAP1 DUP2 PUSH20 0xFFFFFFFFFFFFFFFFFFFFFFFFFFFFFFFFFFFFFFFF AND DUP2 MSTORE POP POP PUSH1 0x1 DUP2 PUSH1 0x80 ADD SWAP1 ISZERO ISZERO SWAP1 DUP2 ISZERO ISZERO DUP2 MSTORE POP POP DUP5 DUP2 PUSH1 0xA0 ADD SWAP1 PUSH1 0x7 SIGNEXTEND SWAP1 DUP2 PUSH1 0x7 SIGNEXTEND DUP2 MSTORE POP POP DUP2 DUP2 PUSH1 0xE0 ADD DUP2 SWAP1 MSTORE POP PUSH0 DUP2 PUSH1 0xC0 ADD SWAP1 ISZERO ISZERO SWAP1 DUP2 ISZERO ISZERO DUP2 MSTORE POP POP PUSH2 0x6C3 ADDRESS PUSH3 0x76A700 PUSH2 0xA67 JUMP JUMPDEST DUP2 PUSH2 0x100 ADD DUP2 SWAP1 MSTORE POP PUSH0 DUP1 PUSH2 0x6D7 DUP4 PUSH2 0xABF JUMP JUMPDEST SWAP2 POP SWAP2 POP PUSH1 0x16 PUSH1 0x3 SIGNEXTEND DUP3 EQ PUSH2 0x721 JUMPI PUSH1 0x40 MLOAD PUSH32 0x8C379A000000000000000000000000000000000000000000000000000000000 DUP2 MSTORE PUSH1 0x4 ADD PUSH2 0x718 SWAP1 PUSH2 0x19FC JUMP JUMPDEST PUSH1 0x40 MLOAD DUP1 SWAP2 SUB SWAP1 REVERT JUMPDEST PUSH0 PUSH1 0x60 PUSH0 JUMPDEST DUP10 PUSH1 0x7 SIGNEXTEND DUP2 PUSH1 0x7 SIGNEXTEND SLT ISZERO PUSH2 0x815 JUMPI PUSH0 DUP10 SWAP1 POP PUSH0 PUSH1 0x1 PUSH8 0xFFFFFFFFFFFFFFFF DUP2 GT ISZERO PUSH2 0x754 JUMPI PUSH2 0x753 PUSH2 0x111C JUMP JUMPDEST JUMPDEST PUSH1 0x40 MLOAD SWAP1 DUP1 DUP3 MSTORE DUP1 PUSH1 0x20 MUL PUSH1 0x20 ADD DUP3 ADD PUSH1 0x40 MSTORE DUP1 ISZERO PUSH2 0x787 JUMPI DUP2 PUSH1 0x20 ADD JUMPDEST PUSH1 0x60 DUP2 MSTORE PUSH1 0x20 ADD SWAP1 PUSH1 0x1 SWAP1 SUB SWAP1 DUP2 PUSH2 0x772 JUMPI SWAP1 POP JUMPDEST POP SWAP1 POP DUP2 DUP2 PUSH0 DUP2 MLOAD DUP2 LT PUSH2 0x79E JUMPI PUSH2 0x79D PUSH2 0x195F JUMP JUMPDEST JUMPDEST PUSH1 0x20 MUL PUSH1 0x20 ADD ADD DUP2 SWAP1 MSTORE POP PUSH2 0x7B4 DUP7 PUSH0 DUP4 PUSH2 0xC25 JUMP JUMPDEST DUP1 SWAP7 POP DUP2 SWAP8 POP DUP3 SWAP10 POP POP POP POP PUSH1 0x16 PUSH1 0x3 SIGNEXTEND DUP8 EQ PUSH2 0x806 JUMPI PUSH1 0x40 MLOAD PUSH32 0x8C379A000000000000000000000000000000000000000000000000000000000 DUP2 MSTORE PUSH1 0x4 ADD PUSH2 0x7FD SWAP1 PUSH2 0x1A8A JUMP JUMPDEST PUSH1 0x40 MLOAD DUP1 SWAP2 SUB SWAP1 REVERT JUMPDEST POP POP DUP1 DUP1 PUSH1 0x1 ADD SWAP2 POP POP PUSH2 0x726 JUMP JUMPDEST POP PUSH1 0x2 DUP13 SWAP1 DUP1 PUSH1 0x1 DUP2 SLOAD ADD DUP1 DUP3 SSTORE DUP1 SWAP2 POP POP PUSH1 0x1 SWAP1 SUB SWAP1 PUSH0 MSTORE PUSH1 0x20 PUSH0 KECCAK256 ADD PUSH0 SWAP1 SWAP2 SWAP1 SWAP2 SWAP1 SWAP2 POP SWAP1 DUP2 PUSH2 0x847 SWAP2 SWAP1 PUSH2 0x1CA2 JUMP JUMPDEST POP DUP3 PUSH1 0x3 DUP14 PUSH1 0x40 MLOAD PUSH2 0x859 SWAP2 SWAP1 PUSH2 0x1DAB JUMP JUMPDEST SWAP1 DUP2 MSTORE PUSH1 0x20 ADD PUSH1 0x40 MLOAD DUP1 SWAP2 SUB SWAP1 KECCAK256 PUSH0 PUSH2 0x100 EXP DUP2 SLOAD DUP2 PUSH20 0xFFFFFFFFFFFFFFFFFFFFFFFFFFFFFFFFFFFFFFFF MUL NOT AND SWAP1 DUP4 PUSH20 0xFFFFFFFFFFFFFFFFFFFFFFFFFFFFFFFFFFFFFFFF AND MUL OR SWAP1 SSTORE POP DUP3 SWAP7 POP POP POP POP POP POP POP SWAP6 SWAP5 POP POP POP POP POP JUMP JUMPDEST PUSH1 0x2 DUP2 DUP2 SLOAD DUP2 LT PUSH2 0x8C5 JUMPI PUSH0 DUP1 REVERT JUMPDEST SWAP1 PUSH0 MSTORE PUSH1 0x20 PUSH0 KECCAK256 ADD PUSH0 SWAP2 POP SWAP1 POP DUP1 SLOAD PUSH2 0x8DD SWAP1 PUSH2 0x1AD5 JUMP JUMPDEST DUP1 PUSH1 0x1F ADD PUSH1 0x20 DUP1 SWAP2 DIV MUL PUSH1 0x20 ADD PUSH1 0x40 MLOAD SWAP1 DUP2 ADD PUSH1 0x40 MSTORE DUP1 SWAP3 SWAP2 SWAP1 DUP2 DUP2 MSTORE PUSH1 0x20 ADD DUP3 DUP1 SLOAD PUSH2 0x909 SWAP1 PUSH2 0x1AD5 JUMP JUMPDEST DUP1 ISZERO PUSH2 0x954 JUMPI DUP1 PUSH1 0x1F LT PUSH2 0x92B JUMPI PUSH2 0x100 DUP1 DUP4 SLOAD DIV MUL DUP4 MSTORE SWAP2 PUSH1 0x20 ADD SWAP2 PUSH2 0x954 JUMP JUMPDEST DUP3 ADD SWAP2 SWAP1 PUSH0 MSTORE PUSH1 0x20 PUSH0 KECCAK256 SWAP1 JUMPDEST DUP2 SLOAD DUP2 MSTORE SWAP1 PUSH1 0x1 ADD SWAP1 PUSH1 0x20 ADD DUP1 DUP4 GT PUSH2 0x937 JUMPI DUP3 SWAP1 SUB PUSH1 0x1F AND DUP3 ADD SWAP2 JUMPDEST POP POP POP POP POP DUP2 JUMP JUMPDEST PUSH1 0x60 PUSH1 0x2 DUP1 SLOAD DUP1 PUSH1 0x20 MUL PUSH1 0x20 ADD PUSH1 0x40 MLOAD SWAP1 DUP2 ADD PUSH1 0x40 MSTORE DUP1 SWAP3 SWAP2 SWAP1 DUP2 DUP2 MSTORE PUSH1 0x20 ADD PUSH0 SWAP1 JUMPDEST DUP3 DUP3 LT ISZERO PUSH2 0xA27 JUMPI DUP4 DUP3 SWAP1 PUSH0 MSTORE PUSH1 0x20 PUSH0 KECCAK256 ADD DUP1 SLOAD PUSH2 0x99C SWAP1 PUSH2 0x1AD5 JUMP JUMPDEST DUP1 PUSH1 0x1F ADD PUSH1 0x20 DUP1 SWAP2 DIV MUL PUSH1 0x20 ADD PUSH1 0x40 MLOAD SWAP1 DUP2 ADD PUSH1 0x40 MSTORE DUP1 SWAP3 SWAP2 SWAP1 DUP2 DUP2 MSTORE PUSH1 0x20 ADD DUP3 DUP1 SLOAD PUSH2 0x9C8 SWAP1 PUSH2 0x1AD5 JUMP JUMPDEST DUP1 ISZERO PUSH2 0xA13 JUMPI DUP1 PUSH1 0x1F LT PUSH2 0x9EA JUMPI PUSH2 0x100 DUP1 DUP4 SLOAD DIV MUL DUP4 MSTORE SWAP2 PUSH1 0x20 ADD SWAP2 PUSH2 0xA13 JUMP JUMPDEST DUP3 ADD SWAP2 SWAP1 PUSH0 MSTORE PUSH1 0x20 PUSH0 KECCAK256 SWAP1 JUMPDEST DUP2 SLOAD DUP2 MSTORE SWAP1 PUSH1 0x1 ADD SWAP1 PUSH1 0x20 ADD DUP1 DUP4 GT PUSH2 0x9F6 JUMPI DUP3 SWAP1 SUB PUSH1 0x1F AND DUP3 ADD SWAP2 JUMPDEST POP POP POP POP POP DUP2 MSTORE PUSH1 0x20 ADD SWAP1 PUSH1 0x1 ADD SWAP1 PUSH2 0x97F JUMP JUMPDEST POP POP POP POP SWAP1 POP SWAP1 JUMP JUMPDEST PUSH2 0xA38 PUSH2 0xEB0 JUMP JUMPDEST PUSH1 0x40 MLOAD DUP1 PUSH1 0x40 ADD PUSH1 0x40 MSTORE DUP1 PUSH2 0xA4C DUP7 PUSH2 0xD96 JUMP JUMPDEST DUP2 MSTORE PUSH1 0x20 ADD PUSH2 0xA5B DUP6 DUP6 PUSH2 0xDD4 JUMP JUMPDEST DUP2 MSTORE POP SWAP1 POP SWAP4 SWAP3 POP POP POP JUMP JUMPDEST PUSH2 0xA6F PUSH2 0xF3A JUMP JUMPDEST DUP3 DUP2 PUSH1 0x20 ADD SWAP1 PUSH20 0xFFFFFFFFFFFFFFFFFFFFFFFFFFFFFFFFFFFFFFFF AND SWAP1 DUP2 PUSH20 0xFFFFFFFFFFFFFFFFFFFFFFFFFFFFFFFFFFFFFFFF AND DUP2 MSTORE POP POP DUP2 DUP2 PUSH1 0x40 ADD SWAP1 PUSH1 0x7 SIGNEXTEND SWAP1 DUP2 PUSH1 0x7 SIGNEXTEND DUP2 MSTORE POP POP SWAP3 SWAP2 POP POP JUMP JUMPDEST PUSH0 DUP1 DUP3 PUSH0 DUP2 PUSH2 0x100 ADD MLOAD PUSH0 ADD MLOAD PUSH1 0x7 SIGNEXTEND EQ DUP1 ISZERO PUSH2 0xAE7 JUMPI POP PUSH0 DUP2 PUSH2 0x100 ADD MLOAD PUSH1 0x40 ADD MLOAD PUSH1 0x7 SIGNEXTEND EQ JUMPDEST ISZERO PUSH2 0xB0A JUMPI PUSH3 0x76A700 PUSH1 0x3 SIGNEXTEND DUP2 PUSH2 0x100 ADD MLOAD PUSH1 0x40 ADD SWAP1 PUSH1 0x7 SIGNEXTEND SWAP1 DUP2 PUSH1 0x7 SIGNEXTEND DUP2 MSTORE POP POP JUMPDEST PUSH0 DUP1 PUSH2 0x167 PUSH20 0xFFFFFFFFFFFFFFFFFFFFFFFFFFFFFFFFFFFFFFFF AND CALLVALUE PUSH4 0xEA83F293 PUSH1 0xE0 SHL DUP9 PUSH1 0x40 MLOAD PUSH1 0x24 ADD PUSH2 0xB3F SWAP2 SWAP1 PUSH2 0x20CB JUMP JUMPDEST PUSH1 0x40 MLOAD PUSH1 0x20 DUP2 DUP4 SUB SUB DUP2 MSTORE SWAP1 PUSH1 0x40 MSTORE SWAP1 PUSH28 0xFFFFFFFFFFFFFFFFFFFFFFFFFFFFFFFFFFFFFFFFFFFFFFFFFFFFFFFF NOT AND PUSH1 0x20 DUP3 ADD DUP1 MLOAD PUSH28 0xFFFFFFFFFFFFFFFFFFFFFFFFFFFFFFFFFFFFFFFFFFFFFFFFFFFFFFFF DUP4 DUP2 DUP4 AND OR DUP4 MSTORE POP POP POP POP PUSH1 0x40 MLOAD PUSH2 0xBA9 SWAP2 SWAP1 PUSH2 0x17AA JUMP JUMPDEST PUSH0 PUSH1 0x40 MLOAD DUP1 DUP4 SUB DUP2 DUP6 DUP8 GAS CALL SWAP3 POP POP POP RETURNDATASIZE DUP1 PUSH0 DUP2 EQ PUSH2 0xBE3 JUMPI PUSH1 0x40 MLOAD SWAP2 POP PUSH1 0x1F NOT PUSH1 0x3F RETURNDATASIZE ADD AND DUP3 ADD PUSH1 0x40 MSTORE RETURNDATASIZE DUP3 MSTORE RETURNDATASIZE PUSH0 PUSH1 0x20 DUP5 ADD RETURNDATACOPY PUSH2 0xBE8 JUMP JUMPDEST PUSH1 0x60 SWAP2 POP JUMPDEST POP SWAP2 POP SWAP2 POP DUP2 PUSH2 0xBFA JUMPI PUSH1 0x15 PUSH0 PUSH2 0xC0F JUMP JUMPDEST DUP1 DUP1 PUSH1 0x20 ADD SWAP1 MLOAD DUP2 ADD SWAP1 PUSH2 0xC0E SWAP2 SWAP1 PUSH2 0x2126 JUMP JUMPDEST JUMPDEST DUP2 PUSH1 0x3 SIGNEXTEND SWAP2 POP DUP1 SWAP6 POP DUP2 SWAP7 POP POP POP POP POP POP SWAP2 POP SWAP2 JUMP JUMPDEST PUSH0 DUP1 PUSH1 0x60 PUSH0 DUP1 PUSH2 0x167 PUSH20 0xFFFFFFFFFFFFFFFFFFFFFFFFFFFFFFFFFFFFFFFF AND PUSH4 0xE0F4059A PUSH1 0xE0 SHL DUP10 DUP10 DUP10 PUSH1 0x40 MLOAD PUSH1 0x24 ADD PUSH2 0xC61 SWAP4 SWAP3 SWAP2 SWAP1 PUSH2 0x221F JUMP JUMPDEST PUSH1 0x40 MLOAD PUSH1 0x20 DUP2 DUP4 SUB SUB DUP2 MSTORE SWAP1 PUSH1 0x40 MSTORE SWAP1 PUSH28 0xFFFFFFFFFFFFFFFFFFFFFFFFFFFFFFFFFFFFFFFFFFFFFFFFFFFFFFFF NOT AND PUSH1 0x20 DUP3 ADD DUP1 MLOAD PUSH28 0xFFFFFFFFFFFFFFFFFFFFFFFFFFFFFFFFFFFFFFFFFFFFFFFFFFFFFFFF DUP4 DUP2 DUP4 AND OR DUP4 MSTORE POP POP POP POP PUSH1 0x40 MLOAD PUSH2 0xCCB SWAP2 SWAP1 PUSH2 0x17AA JUMP JUMPDEST PUSH0 PUSH1 0x40 MLOAD DUP1 DUP4 SUB DUP2 PUSH0 DUP7 GAS CALL SWAP2 POP POP RETURNDATASIZE DUP1 PUSH0 DUP2 EQ PUSH2 0xD04 JUMPI PUSH1 0x40 MLOAD SWAP2 POP PUSH1 0x1F NOT PUSH1 0x3F RETURNDATASIZE ADD AND DUP3 ADD PUSH1 0x40 MSTORE RETURNDATASIZE DUP3 MSTORE RETURNDATASIZE PUSH0 PUSH1 0x20 DUP5 ADD RETURNDATACOPY PUSH2 0xD09 JUMP JUMPDEST PUSH1 0x60 SWAP2 POP JUMPDEST POP SWAP2 POP SWAP2 POP DUP2 PUSH2 0xD64 JUMPI PUSH1 0x15 PUSH0 DUP1 PUSH8 0xFFFFFFFFFFFFFFFF DUP2 GT ISZERO PUSH2 0xD30 JUMPI PUSH2 0xD2F PUSH2 0x111C JUMP JUMPDEST JUMPDEST PUSH1 0x40 MLOAD SWAP1 DUP1 DUP3 MSTORE DUP1 PUSH1 0x20 MUL PUSH1 0x20 ADD DUP3 ADD PUSH1 0x40 MSTORE DUP1 ISZERO PUSH2 0xD5E JUMPI DUP2 PUSH1 0x20 ADD PUSH1 0x20 DUP3 MUL DUP1 CALLDATASIZE DUP4 CALLDATACOPY DUP1 DUP3 ADD SWAP2 POP POP SWAP1 POP JUMPDEST POP PUSH2 0xD79 JUMP JUMPDEST DUP1 DUP1 PUSH1 0x20 ADD SWAP1 MLOAD DUP2 ADD SWAP1 PUSH2 0xD78 SWAP2 SWAP1 PUSH2 0x2333 JUMP JUMPDEST JUMPDEST DUP3 PUSH1 0x3 SIGNEXTEND SWAP3 POP DUP1 SWAP6 POP DUP2 SWAP7 POP DUP3 SWAP8 POP POP POP POP POP POP SWAP4 POP SWAP4 POP SWAP4 SWAP1 POP JUMP JUMPDEST PUSH0 PUSH1 0x1 PUSH0 DUP4 PUSH1 0x6 DUP2 GT ISZERO PUSH2 0xDAD JUMPI PUSH2 0xDAC PUSH2 0x239F JUMP JUMPDEST JUMPDEST PUSH1 0x6 DUP2 GT ISZERO PUSH2 0xDBF JUMPI PUSH2 0xDBE PUSH2 0x239F JUMP JUMPDEST JUMPDEST DUP2 MSTORE PUSH1 0x20 ADD SWAP1 DUP2 MSTORE PUSH1 0x20 ADD PUSH0 KECCAK256 SLOAD SWAP1 POP SWAP2 SWAP1 POP JUMP JUMPDEST PUSH2 0xDDC PUSH2 0xF74 JUMP JUMPDEST PUSH1 0x1 PUSH1 0x4 DUP2 GT ISZERO PUSH2 0xDF0 JUMPI PUSH2 0xDEF PUSH2 0x239F JUMP JUMPDEST JUMPDEST DUP4 PUSH1 0x4 DUP2 GT ISZERO PUSH2 0xE03 JUMPI PUSH2 0xE02 PUSH2 0x239F JUMP JUMPDEST JUMPDEST SUB PUSH2 0xE45 JUMPI DUP2 DUP2 PUSH1 0x20 ADD SWAP1 PUSH20 0xFFFFFFFFFFFFFFFFFFFFFFFFFFFFFFFFFFFFFFFF AND SWAP1 DUP2 PUSH20 0xFFFFFFFFFFFFFFFFFFFFFFFFFFFFFFFFFFFFFFFF AND DUP2 MSTORE POP POP PUSH2 0xEAA JUMP JUMPDEST PUSH1 0x4 DUP1 DUP2 GT ISZERO PUSH2 0xE58 JUMPI PUSH2 0xE57 PUSH2 0x239F JUMP JUMPDEST JUMPDEST DUP4 PUSH1 0x4 DUP2 GT ISZERO PUSH2 0xE6B JUMPI PUSH2 0xE6A PUSH2 0x239F JUMP JUMPDEST JUMPDEST SUB PUSH2 0xEA9 JUMPI DUP2 DUP2 PUSH1 0x80 ADD SWAP1 PUSH20 0xFFFFFFFFFFFFFFFFFFFFFFFFFFFFFFFFFFFFFFFF AND SWAP1 DUP2 PUSH20 0xFFFFFFFFFFFFFFFFFFFFFFFFFFFFFFFFFFFFFFFF AND DUP2 MSTORE POP POP JUMPDEST JUMPDEST SWAP3 SWAP2 POP POP JUMP JUMPDEST PUSH1 0x40 MLOAD DUP1 PUSH1 0x40 ADD PUSH1 0x40 MSTORE DUP1 PUSH0 DUP2 MSTORE PUSH1 0x20 ADD PUSH2 0xEC9 PUSH2 0xF74 JUMP JUMPDEST DUP2 MSTORE POP SWAP1 JUMP JUMPDEST PUSH1 0x40 MLOAD DUP1 PUSH2 0x120 ADD PUSH1 0x40 MSTORE DUP1 PUSH1 0x60 DUP2 MSTORE PUSH1 0x20 ADD PUSH1 0x60 DUP2 MSTORE PUSH1 0x20 ADD PUSH0 PUSH20 0xFFFFFFFFFFFFFFFFFFFFFFFFFFFFFFFFFFFFFFFF AND DUP2 MSTORE PUSH1 0x20 ADD PUSH1 0x60 DUP2 MSTORE PUSH1 0x20 ADD PUSH0 ISZERO ISZERO DUP2 MSTORE PUSH1 0x20 ADD PUSH0 PUSH1 0x7 SIGNEXTEND DUP2 MSTORE PUSH1 0x20 ADD PUSH0 ISZERO ISZERO DUP2 MSTORE PUSH1 0x20 ADD PUSH1 0x60 DUP2 MSTORE PUSH1 0x20 ADD PUSH2 0xF34 PUSH2 0xF3A JUMP JUMPDEST DUP2 MSTORE POP SWAP1 JUMP JUMPDEST PUSH1 0x40 MLOAD DUP1 PUSH1 0x60 ADD PUSH1 0x40 MSTORE DUP1 PUSH0 PUSH1 0x7 SIGNEXTEND DUP2 MSTORE PUSH1 0x20 ADD PUSH0 PUSH20 0xFFFFFFFFFFFFFFFFFFFFFFFFFFFFFFFFFFFFFFFF AND DUP2 MSTORE PUSH1 0x20 ADD PUSH0 PUSH1 0x7 SIGNEXTEND DUP2 MSTORE POP SWAP1 JUMP JUMPDEST PUSH1 0x40 MLOAD DUP1 PUSH1 0xA0 ADD PUSH1 0x40 MSTORE DUP1 PUSH0 ISZERO ISZERO DUP2 MSTORE PUSH1 0x20 ADD PUSH0 PUSH20 0xFFFFFFFFFFFFFFFFFFFFFFFFFFFFFFFFFFFFFFFF AND DUP2 MSTORE PUSH1 0x20 ADD PUSH1 0x60 DUP2 MSTORE PUSH1 0x20 ADD PUSH1 0x60 DUP2 MSTORE PUSH1 0x20 ADD PUSH0 PUSH20 0xFFFFFFFFFFFFFFFFFFFFFFFFFFFFFFFFFFFFFFFF AND DUP2 MSTORE POP SWAP1 JUMP JUMPDEST PUSH0 PUSH1 0x40 MLOAD SWAP1 POP SWAP1 JUMP JUMPDEST PUSH0 DUP1 REVERT JUMPDEST PUSH0 DUP1 REVERT JUMPDEST PUSH0 PUSH20 0xFFFFFFFFFFFFFFFFFFFFFFFFFFFFFFFFFFFFFFFF DUP3 AND SWAP1 POP SWAP2 SWAP1 POP JUMP JUMPDEST PUSH0 PUSH2 0x1008 DUP3 PUSH2 0xFDF JUMP JUMPDEST SWAP1 POP SWAP2 SWAP1 POP JUMP JUMPDEST PUSH2 0x1018 DUP2 PUSH2 0xFFE JUMP JUMPDEST DUP2 EQ PUSH2 0x1022 JUMPI PUSH0 DUP1 REVERT JUMPDEST POP JUMP JUMPDEST PUSH0 DUP2 CALLDATALOAD SWAP1 POP PUSH2 0x1033 DUP2 PUSH2 0x100F JUMP JUMPDEST SWAP3 SWAP2 POP POP JUMP JUMPDEST PUSH0 DUP2 SWAP1 POP SWAP2 SWAP1 POP JUMP JUMPDEST PUSH2 0x104B DUP2 PUSH2 0x1039 JUMP JUMPDEST DUP2 EQ PUSH2 0x1055 JUMPI PUSH0 DUP1 REVERT JUMPDEST POP JUMP JUMPDEST PUSH0 DUP2 CALLDATALOAD SWAP1 POP PUSH2 0x1066 DUP2 PUSH2 0x1042 JUMP JUMPDEST SWAP3 SWAP2 POP POP JUMP JUMPDEST PUSH0 DUP1 PUSH0 DUP1 PUSH1 0x80 DUP6 DUP8 SUB SLT ISZERO PUSH2 0x1084 JUMPI PUSH2 0x1083 PUSH2 0xFD7 JUMP JUMPDEST JUMPDEST PUSH0 PUSH2 0x1091 DUP8 DUP3 DUP9 ADD PUSH2 0x1025 JUMP JUMPDEST SWAP5 POP POP PUSH1 0x20 PUSH2 0x10A2 DUP8 DUP3 DUP9 ADD PUSH2 0x1025 JUMP JUMPDEST SWAP4 POP POP PUSH1 0x40 PUSH2 0x10B3 DUP8 DUP3 DUP9 ADD PUSH2 0x1025 JUMP JUMPDEST SWAP3 POP POP PUSH1 0x60 PUSH2 0x10C4 DUP8 DUP3 DUP9 ADD PUSH2 0x1058 JUMP JUMPDEST SWAP2 POP POP SWAP3 SWAP6 SWAP2 SWAP5 POP SWAP3 POP JUMP JUMPDEST PUSH0 DUP2 PUSH1 0x7 SIGNEXTEND SWAP1 POP SWAP2 SWAP1 POP JUMP JUMPDEST PUSH2 0x10E5 DUP2 PUSH2 0x10D0 JUMP JUMPDEST DUP3 MSTORE POP POP JUMP JUMPDEST PUSH0 PUSH1 0x20 DUP3 ADD SWAP1 POP PUSH2 0x10FE PUSH0 DUP4 ADD DUP5 PUSH2 0x10DC JUMP JUMPDEST SWAP3 SWAP2 POP POP JUMP JUMPDEST PUSH0 DUP1 REVERT JUMPDEST PUSH0 DUP1 REVERT JUMPDEST PUSH0 PUSH1 0x1F NOT PUSH1 0x1F DUP4 ADD AND SWAP1 POP SWAP2 SWAP1 POP JUMP JUMPDEST PUSH32 0x4E487B7100000000000000000000000000000000000000000000000000000000 PUSH0 MSTORE PUSH1 0x41 PUSH1 0x4 MSTORE PUSH1 0x24 PUSH0 REVERT JUMPDEST PUSH2 0x1152 DUP3 PUSH2 0x110C JUMP JUMPDEST DUP2 ADD DUP2 DUP2 LT PUSH8 0xFFFFFFFFFFFFFFFF DUP3 GT OR ISZERO PUSH2 0x1171 JUMPI PUSH2 0x1170 PUSH2 0x111C JUMP JUMPDEST JUMPDEST DUP1 PUSH1 0x40 MSTORE POP POP POP JUMP JUMPDEST PUSH0 PUSH2 0x1183 PUSH2 0xFCE JUMP JUMPDEST SWAP1 POP PUSH2 0x118F DUP3 DUP3 PUSH2 0x1149 JUMP JUMPDEST SWAP2 SWAP1 POP JUMP JUMPDEST PUSH0 PUSH8 0xFFFFFFFFFFFFFFFF DUP3 GT ISZERO PUSH2 0x11AE JUMPI PUSH2 0x11AD PUSH2 0x111C JUMP JUMPDEST JUMPDEST PUSH2 0x11B7 DUP3 PUSH2 0x110C JUMP JUMPDEST SWAP1 POP PUSH1 0x20 DUP2 ADD SWAP1 POP SWAP2 SWAP1 POP JUMP JUMPDEST DUP3 DUP2 DUP4 CALLDATACOPY PUSH0 DUP4 DUP4 ADD MSTORE POP POP POP JUMP JUMPDEST PUSH0 PUSH2 0x11E4 PUSH2 0x11DF DUP5 PUSH2 0x1194 JUMP JUMPDEST PUSH2 0x117A JUMP JUMPDEST SWAP1 POP DUP3 DUP2 MSTORE PUSH1 0x20 DUP2 ADD DUP5 DUP5 DUP5 ADD GT ISZERO PUSH2 0x1200 JUMPI PUSH2 0x11FF PUSH2 0x1108 JUMP JUMPDEST JUMPDEST PUSH2 0x120B DUP5 DUP3 DUP6 PUSH2 0x11C4 JUMP JUMPDEST POP SWAP4 SWAP3 POP POP POP JUMP JUMPDEST PUSH0 DUP3 PUSH1 0x1F DUP4 ADD SLT PUSH2 0x1227 JUMPI PUSH2 0x1226 PUSH2 0x1104 JUMP JUMPDEST JUMPDEST DUP2 CALLDATALOAD PUSH2 0x1237 DUP5 DUP3 PUSH1 0x20 DUP7 ADD PUSH2 0x11D2 JUMP JUMPDEST SWAP2 POP POP SWAP3 SWAP2 POP POP JUMP JUMPDEST PUSH0 PUSH1 0x20 DUP3 DUP5 SUB SLT ISZERO PUSH2 0x1255 JUMPI PUSH2 0x1254 PUSH2 0xFD7 JUMP JUMPDEST JUMPDEST PUSH0 DUP3 ADD CALLDATALOAD PUSH8 0xFFFFFFFFFFFFFFFF DUP2 GT ISZERO PUSH2 0x1272 JUMPI PUSH2 0x1271 PUSH2 0xFDB JUMP JUMPDEST JUMPDEST PUSH2 0x127E DUP5 DUP3 DUP6 ADD PUSH2 0x1213 JUMP JUMPDEST SWAP2 POP POP SWAP3 SWAP2 POP POP JUMP JUMPDEST PUSH2 0x1290 DUP2 PUSH2 0xFFE JUMP JUMPDEST DUP3 MSTORE POP POP JUMP JUMPDEST PUSH0 PUSH1 0x20 DUP3 ADD SWAP1 POP PUSH2 0x12A9 PUSH0 DUP4 ADD DUP5 PUSH2 0x1287 JUMP JUMPDEST SWAP3 SWAP2 POP POP JUMP JUMPDEST PUSH0 PUSH8 0xFFFFFFFFFFFFFFFF DUP3 GT ISZERO PUSH2 0x12C9 JUMPI PUSH2 0x12C8 PUSH2 0x111C JUMP JUMPDEST JUMPDEST PUSH2 0x12D2 DUP3 PUSH2 0x110C JUMP JUMPDEST SWAP1 POP PUSH1 0x20 DUP2 ADD SWAP1 POP SWAP2 SWAP1 POP JUMP JUMPDEST PUSH0 PUSH2 0x12F1 PUSH2 0x12EC DUP5 PUSH2 0x12AF JUMP JUMPDEST PUSH2 0x117A JUMP JUMPDEST SWAP1 POP DUP3 DUP2 MSTORE PUSH1 0x20 DUP2 ADD DUP5 DUP5 DUP5 ADD GT ISZERO PUSH2 0x130D JUMPI PUSH2 0x130C PUSH2 0x1108 JUMP JUMPDEST JUMPDEST PUSH2 0x1318 DUP5 DUP3 DUP6 PUSH2 0x11C4 JUMP JUMPDEST POP SWAP4 SWAP3 POP POP POP JUMP JUMPDEST PUSH0 DUP3 PUSH1 0x1F DUP4 ADD SLT PUSH2 0x1334 JUMPI PUSH2 0x1333 PUSH2 0x1104 JUMP JUMPDEST JUMPDEST DUP2 CALLDATALOAD PUSH2 0x1344 DUP5 DUP3 PUSH1 0x20 DUP7 ADD PUSH2 0x12DF JUMP JUMPDEST SWAP2 POP POP SWAP3 SWAP2 POP POP JUMP JUMPDEST PUSH0 DUP1 PUSH1 0x40 DUP4 DUP6 SUB SLT ISZERO PUSH2 0x1363 JUMPI PUSH2 0x1362 PUSH2 0xFD7 JUMP JUMPDEST JUMPDEST PUSH0 PUSH2 0x1370 DUP6 DUP3 DUP7 ADD PUSH2 0x1025 JUMP JUMPDEST SWAP3 POP POP PUSH1 0x20 DUP4 ADD CALLDATALOAD PUSH8 0xFFFFFFFFFFFFFFFF DUP2 GT ISZERO PUSH2 0x1391 JUMPI PUSH2 0x1390 PUSH2 0xFDB JUMP JUMPDEST JUMPDEST PUSH2 0x139D DUP6 DUP3 DUP7 ADD PUSH2 0x1320 JUMP JUMPDEST SWAP2 POP POP SWAP3 POP SWAP3 SWAP1 POP JUMP JUMPDEST PUSH0 DUP2 SWAP1 POP SWAP2 SWAP1 POP JUMP JUMPDEST PUSH2 0x13B9 DUP2 PUSH2 0x13A7 JUMP JUMPDEST DUP3 MSTORE POP POP JUMP JUMPDEST PUSH0 DUP2 MLOAD SWAP1 POP SWAP2 SWAP1 POP JUMP JUMPDEST PUSH0 DUP3 DUP3 MSTORE PUSH1 0x20 DUP3 ADD SWAP1 POP SWAP3 SWAP2 POP POP JUMP JUMPDEST DUP3 DUP2 DUP4 MCOPY PUSH0 DUP4 DUP4 ADD MSTORE POP POP POP JUMP JUMPDEST PUSH0 PUSH2 0x13F1 DUP3 PUSH2 0x13BF JUMP JUMPDEST PUSH2 0x13FB DUP2 DUP6 PUSH2 0x13C9 JUMP JUMPDEST SWAP4 POP PUSH2 0x140B DUP2 DUP6 PUSH1 0x20 DUP7 ADD PUSH2 0x13D9 JUMP JUMPDEST PUSH2 0x1414 DUP2 PUSH2 0x110C JUMP JUMPDEST DUP5 ADD SWAP2 POP POP SWAP3 SWAP2 POP POP JUMP JUMPDEST PUSH0 PUSH1 0x40 DUP3 ADD SWAP1 POP PUSH2 0x1432 PUSH0 DUP4 ADD DUP6 PUSH2 0x13B0 JUMP JUMPDEST DUP2 DUP2 SUB PUSH1 0x20 DUP4 ADD MSTORE PUSH2 0x1444 DUP2 DUP5 PUSH2 0x13E7 JUMP JUMPDEST SWAP1 POP SWAP4 SWAP3 POP POP POP JUMP JUMPDEST PUSH2 0x1456 DUP2 PUSH2 0x10D0 JUMP JUMPDEST DUP2 EQ PUSH2 0x1460 JUMPI PUSH0 DUP1 REVERT JUMPDEST POP JUMP JUMPDEST PUSH0 DUP2 CALLDATALOAD SWAP1 POP PUSH2 0x1471 DUP2 PUSH2 0x144D JUMP JUMPDEST SWAP3 SWAP2 POP POP JUMP JUMPDEST PUSH0 DUP1 PUSH0 DUP1 PUSH0 PUSH1 0xA0 DUP7 DUP9 SUB SLT ISZERO PUSH2 0x1490 JUMPI PUSH2 0x148F PUSH2 0xFD7 JUMP JUMPDEST JUMPDEST PUSH0 DUP7 ADD CALLDATALOAD PUSH8 0xFFFFFFFFFFFFFFFF DUP2 GT ISZERO PUSH2 0x14AD JUMPI PUSH2 0x14AC PUSH2 0xFDB JUMP JUMPDEST JUMPDEST PUSH2 0x14B9 DUP9 DUP3 DUP10 ADD PUSH2 0x1213 JUMP JUMPDEST SWAP6 POP POP PUSH1 0x20 DUP7 ADD CALLDATALOAD PUSH8 0xFFFFFFFFFFFFFFFF DUP2 GT ISZERO PUSH2 0x14DA JUMPI PUSH2 0x14D9 PUSH2 0xFDB JUMP JUMPDEST JUMPDEST PUSH2 0x14E6 DUP9 DUP3 DUP10 ADD PUSH2 0x1213 JUMP JUMPDEST SWAP5 POP POP PUSH1 0x40 DUP7 ADD CALLDATALOAD PUSH8 0xFFFFFFFFFFFFFFFF DUP2 GT ISZERO PUSH2 0x1507 JUMPI PUSH2 0x1506 PUSH2 0xFDB JUMP JUMPDEST JUMPDEST PUSH2 0x1513 DUP9 DUP3 DUP10 ADD PUSH2 0x1213 JUMP JUMPDEST SWAP4 POP POP PUSH1 0x60 PUSH2 0x1524 DUP9 DUP3 DUP10 ADD PUSH2 0x1463 JUMP JUMPDEST SWAP3 POP POP PUSH1 0x80 DUP7 ADD CALLDATALOAD PUSH8 0xFFFFFFFFFFFFFFFF DUP2 GT ISZERO PUSH2 0x1545 JUMPI PUSH2 0x1544 PUSH2 0xFDB JUMP JUMPDEST JUMPDEST PUSH2 0x1551 DUP9 DUP3 DUP10 ADD PUSH2 0x1213 JUMP JUMPDEST SWAP2 POP POP SWAP3 SWAP6 POP SWAP3 SWAP6 SWAP1 SWAP4 POP JUMP JUMPDEST PUSH0 PUSH1 0x20 DUP3 DUP5 SUB SLT ISZERO PUSH2 0x1573 JUMPI PUSH2 0x1572 PUSH2 0xFD7 JUMP JUMPDEST JUMPDEST PUSH0 PUSH2 0x1580 DUP5 DUP3 DUP6 ADD PUSH2 0x1058 JUMP JUMPDEST SWAP2 POP POP SWAP3 SWAP2 POP POP JUMP JUMPDEST PUSH0 DUP2 MLOAD SWAP1 POP SWAP2 SWAP1 POP JUMP JUMPDEST PUSH0 DUP3 DUP3 MSTORE PUSH1 0x20 DUP3 ADD SWAP1 POP SWAP3 SWAP2 POP POP JUMP JUMPDEST PUSH0 PUSH2 0x15AD DUP3 PUSH2 0x1589 JUMP JUMPDEST PUSH2 0x15B7 DUP2 DUP6 PUSH2 0x1593 JUMP JUMPDEST SWAP4 POP PUSH2 0x15C7 DUP2 DUP6 PUSH1 0x20 DUP7 ADD PUSH2 0x13D9 JUMP JUMPDEST PUSH2 0x15D0 DUP2 PUSH2 0x110C JUMP JUMPDEST DUP5 ADD SWAP2 POP POP SWAP3 SWAP2 POP POP JUMP JUMPDEST PUSH0 PUSH1 0x20 DUP3 ADD SWAP1 POP DUP2 DUP2 SUB PUSH0 DUP4 ADD MSTORE PUSH2 0x15F3 DUP2 DUP5 PUSH2 0x15A3 JUMP JUMPDEST SWAP1 POP SWAP3 SWAP2 POP POP JUMP JUMPDEST PUSH0 DUP2 MLOAD SWAP1 POP SWAP2 SWAP1 POP JUMP JUMPDEST PUSH0 DUP3 DUP3 MSTORE PUSH1 0x20 DUP3 ADD SWAP1 POP SWAP3 SWAP2 POP POP JUMP JUMPDEST PUSH0 DUP2 SWAP1 POP PUSH1 0x20 DUP3 ADD SWAP1 POP SWAP2 SWAP1 POP JUMP JUMPDEST PUSH0 DUP3 DUP3 MSTORE PUSH1 0x20 DUP3 ADD SWAP1 POP SWAP3 SWAP2 POP POP JUMP JUMPDEST PUSH0 PUSH2 0x163E DUP3 PUSH2 0x1589 JUMP JUMPDEST PUSH2 0x1648 DUP2 DUP6 PUSH2 0x1624 JUMP JUMPDEST SWAP4 POP PUSH2 0x1658 DUP2 DUP6 PUSH1 0x20 DUP7 ADD PUSH2 0x13D9 JUMP JUMPDEST PUSH2 0x1661 DUP2 PUSH2 0x110C JUMP JUMPDEST DUP5 ADD SWAP2 POP POP SWAP3 SWAP2 POP POP JUMP JUMPDEST PUSH0 PUSH2 0x1677 DUP4 DUP4 PUSH2 0x1634 JUMP JUMPDEST SWAP1 POP SWAP3 SWAP2 POP POP JUMP JUMPDEST PUSH0 PUSH1 0x20 DUP3 ADD SWAP1 POP SWAP2 SWAP1 POP JUMP JUMPDEST PUSH0 PUSH2 0x1695 DUP3 PUSH2 0x15FB JUMP JUMPDEST PUSH2 0x169F DUP2 DUP6 PUSH2 0x1605 JUMP JUMPDEST SWAP4 POP DUP4 PUSH1 0x20 DUP3 MUL DUP6 ADD PUSH2 0x16B1 DUP6 PUSH2 0x1615 JUMP JUMPDEST DUP1 PUSH0 JUMPDEST DUP6 DUP2 LT ISZERO PUSH2 0x16EC JUMPI DUP5 DUP5 SUB DUP10 MSTORE DUP2 MLOAD PUSH2 0x16CD DUP6 DUP3 PUSH2 0x166C JUMP JUMPDEST SWAP5 POP PUSH2 0x16D8 DUP4 PUSH2 0x167F JUMP JUMPDEST SWAP3 POP PUSH1 0x20 DUP11 ADD SWAP10 POP POP PUSH1 0x1 DUP2 ADD SWAP1 POP PUSH2 0x16B4 JUMP JUMPDEST POP DUP3 SWAP8 POP DUP8 SWAP6 POP POP POP POP POP POP SWAP3 SWAP2 POP POP JUMP JUMPDEST PUSH0 PUSH1 0x20 DUP3 ADD SWAP1 POP DUP2 DUP2 SUB PUSH0 DUP4 ADD MSTORE PUSH2 0x1716 DUP2 DUP5 PUSH2 0x168B JUMP JUMPDEST SWAP1 POP SWAP3 SWAP2 POP POP JUMP JUMPDEST PUSH2 0x1727 DUP2 PUSH2 0x1039 JUMP JUMPDEST DUP3 MSTORE POP POP JUMP JUMPDEST PUSH0 PUSH1 0x80 DUP3 ADD SWAP1 POP PUSH2 0x1740 PUSH0 DUP4 ADD DUP8 PUSH2 0x1287 JUMP JUMPDEST PUSH2 0x174D PUSH1 0x20 DUP4 ADD DUP7 PUSH2 0x1287 JUMP JUMPDEST PUSH2 0x175A PUSH1 0x40 DUP4 ADD DUP6 PUSH2 0x1287 JUMP JUMPDEST PUSH2 0x1767 PUSH1 0x60 DUP4 ADD DUP5 PUSH2 0x171E JUMP JUMPDEST SWAP6 SWAP5 POP POP POP POP POP JUMP JUMPDEST PUSH0 DUP2 SWAP1 POP SWAP3 SWAP2 POP POP JUMP JUMPDEST PUSH0 PUSH2 0x1784 DUP3 PUSH2 0x13BF JUMP JUMPDEST PUSH2 0x178E DUP2 DUP6 PUSH2 0x1770 JUMP JUMPDEST SWAP4 POP PUSH2 0x179E DUP2 DUP6 PUSH1 0x20 DUP7 ADD PUSH2 0x13D9 JUMP JUMPDEST DUP1 DUP5 ADD SWAP2 POP POP SWAP3 SWAP2 POP POP JUMP JUMPDEST PUSH0 PUSH2 0x17B5 DUP3 DUP5 PUSH2 0x177A JUMP JUMPDEST SWAP2 POP DUP2 SWAP1 POP SWAP3 SWAP2 POP POP JUMP JUMPDEST PUSH0 DUP2 PUSH1 0x3 SIGNEXTEND SWAP1 POP SWAP2 SWAP1 POP JUMP JUMPDEST PUSH2 0x17D5 DUP2 PUSH2 0x17C0 JUMP JUMPDEST DUP2 EQ PUSH2 0x17DF JUMPI PUSH0 DUP1 REVERT JUMPDEST POP JUMP JUMPDEST PUSH0 DUP2 MLOAD SWAP1 POP PUSH2 0x17F0 DUP2 PUSH2 0x17CC JUMP JUMPDEST SWAP3 SWAP2 POP POP JUMP JUMPDEST PUSH0 PUSH1 0x20 DUP3 DUP5 SUB SLT ISZERO PUSH2 0x180B JUMPI PUSH2 0x180A PUSH2 0xFD7 JUMP JUMPDEST JUMPDEST PUSH0 PUSH2 0x1818 DUP5 DUP3 DUP6 ADD PUSH2 0x17E2 JUMP JUMPDEST SWAP2 POP POP SWAP3 SWAP2 POP POP JUMP JUMPDEST PUSH0 PUSH1 0x40 DUP3 ADD SWAP1 POP PUSH2 0x1834 PUSH0 DUP4 ADD DUP6 PUSH2 0x1287 JUMP JUMPDEST DUP2 DUP2 SUB PUSH1 0x20 DUP4 ADD MSTORE PUSH2 0x1846 DUP2 DUP5 PUSH2 0x13E7 JUMP JUMPDEST SWAP1 POP SWAP4 SWAP3 POP POP POP JUMP JUMPDEST PUSH0 DUP2 ISZERO ISZERO SWAP1 POP SWAP2 SWAP1 POP JUMP JUMPDEST PUSH2 0x1863 DUP2 PUSH2 0x184F JUMP JUMPDEST DUP3 MSTORE POP POP JUMP JUMPDEST PUSH0 PUSH1 0x40 DUP3 ADD SWAP1 POP PUSH2 0x187C PUSH0 DUP4 ADD DUP6 PUSH2 0x185A JUMP JUMPDEST DUP2 DUP2 SUB PUSH1 0x20 DUP4 ADD MSTORE PUSH2 0x188E DUP2 DUP5 PUSH2 0x13E7 JUMP JUMPDEST SWAP1 POP SWAP4 SWAP3 POP POP POP JUMP JUMPDEST PUSH0 PUSH2 0x18A9 PUSH2 0x18A4 DUP5 PUSH2 0x12AF JUMP JUMPDEST PUSH2 0x117A JUMP JUMPDEST SWAP1 POP DUP3 DUP2 MSTORE PUSH1 0x20 DUP2 ADD DUP5 DUP5 DUP5 ADD GT ISZERO PUSH2 0x18C5 JUMPI PUSH2 0x18C4 PUSH2 0x1108 JUMP JUMPDEST JUMPDEST PUSH2 0x18D0 DUP5 DUP3 DUP6 PUSH2 0x13D9 JUMP JUMPDEST POP SWAP4 SWAP3 POP POP POP JUMP JUMPDEST PUSH0 DUP3 PUSH1 0x1F DUP4 ADD SLT PUSH2 0x18EC JUMPI PUSH2 0x18EB PUSH2 0x1104 JUMP JUMPDEST JUMPDEST DUP2 MLOAD PUSH2 0x18FC DUP5 DUP3 PUSH1 0x20 DUP7 ADD PUSH2 0x1897 JUMP JUMPDEST SWAP2 POP POP SWAP3 SWAP2 POP POP JUMP JUMPDEST PUSH0 DUP1 PUSH1 0x40 DUP4 DUP6 SUB SLT ISZERO PUSH2 0x191B JUMPI PUSH2 0x191A PUSH2 0xFD7 JUMP JUMPDEST JUMPDEST PUSH0 PUSH2 0x1928 DUP6 DUP3 DUP7 ADD PUSH2 0x17E2 JUMP JUMPDEST SWAP3 POP POP PUSH1 0x20 DUP4 ADD MLOAD PUSH8 0xFFFFFFFFFFFFFFFF DUP2 GT ISZERO PUSH2 0x1949 JUMPI PUSH2 0x1948 PUSH2 0xFDB JUMP JUMPDEST JUMPDEST PUSH2 0x1955 DUP6 DUP3 DUP7 ADD PUSH2 0x18D8 JUMP JUMPDEST SWAP2 POP POP SWAP3 POP SWAP3 SWAP1 POP JUMP JUMPDEST PUSH32 0x4E487B7100000000000000000000000000000000000000000000000000000000 PUSH0 MSTORE PUSH1 0x32 PUSH1 0x4 MSTORE PUSH1 0x24 PUSH0 REVERT JUMPDEST PUSH32 0x6661696C656420746F20637265617465206E6F6E2D66756E6769626C6520746F PUSH0 DUP3 ADD MSTORE PUSH32 0x6B656E0000000000000000000000000000000000000000000000000000000000 PUSH1 0x20 DUP3 ADD MSTORE POP JUMP JUMPDEST PUSH0 PUSH2 0x19E6 PUSH1 0x23 DUP4 PUSH2 0x1593 JUMP JUMPDEST SWAP2 POP PUSH2 0x19F1 DUP3 PUSH2 0x198C JUMP JUMPDEST PUSH1 0x40 DUP3 ADD SWAP1 POP SWAP2 SWAP1 POP JUMP JUMPDEST PUSH0 PUSH1 0x20 DUP3 ADD SWAP1 POP DUP2 DUP2 SUB PUSH0 DUP4 ADD MSTORE PUSH2 0x1A13 DUP2 PUSH2 0x19DA JUMP JUMPDEST SWAP1 POP SWAP2 SWAP1 POP JUMP JUMPDEST PUSH32 0x6661696C656420746F206D696E74206E6F6E2D66756E6769626C6520746F6B65 PUSH0 DUP3 ADD MSTORE PUSH32 0x6E00000000000000000000000000000000000000000000000000000000000000 PUSH1 0x20 DUP3 ADD MSTORE POP JUMP JUMPDEST PUSH0 PUSH2 0x1A74 PUSH1 0x21 DUP4 PUSH2 0x1593 JUMP JUMPDEST SWAP2 POP PUSH2 0x1A7F DUP3 PUSH2 0x1A1A JUMP JUMPDEST PUSH1 0x40 DUP3 ADD SWAP1 POP SWAP2 SWAP1 POP JUMP JUMPDEST PUSH0 PUSH1 0x20 DUP3 ADD SWAP1 POP DUP2 DUP2 SUB PUSH0 DUP4 ADD MSTORE PUSH2 0x1AA1 DUP2 PUSH2 0x1A68 JUMP JUMPDEST SWAP1 POP SWAP2 SWAP1 POP JUMP JUMPDEST PUSH32 0x4E487B7100000000000000000000000000000000000000000000000000000000 PUSH0 MSTORE PUSH1 0x22 PUSH1 0x4 MSTORE PUSH1 0x24 PUSH0 REVERT JUMPDEST PUSH0 PUSH1 0x2 DUP3 DIV SWAP1 POP PUSH1 0x1 DUP3 AND DUP1 PUSH2 0x1AEC JUMPI PUSH1 0x7F DUP3 AND SWAP2 POP JUMPDEST PUSH1 0x20 DUP3 LT DUP2 SUB PUSH2 0x1AFF JUMPI PUSH2 0x1AFE PUSH2 0x1AA8 JUMP JUMPDEST JUMPDEST POP SWAP2 SWAP1 POP JUMP JUMPDEST PUSH0 DUP2 SWAP1 POP DUP2 PUSH0 MSTORE PUSH1 0x20 PUSH0 KECCAK256 SWAP1 POP SWAP2 SWAP1 POP JUMP JUMPDEST PUSH0 PUSH1 0x20 PUSH1 0x1F DUP4 ADD DIV SWAP1 POP SWAP2 SWAP1 POP JUMP JUMPDEST PUSH0 DUP3 DUP3 SHL SWAP1 POP SWAP3 SWAP2 POP POP JUMP JUMPDEST PUSH0 PUSH1 0x8 DUP4 MUL PUSH2 0x1B61 PUSH32 0xFFFFFFFFFFFFFFFFFFFFFFFFFFFFFFFFFFFFFFFFFFFFFFFFFFFFFFFFFFFFFFFF DUP3 PUSH2 0x1B26 JUMP JUMPDEST PUSH2 0x1B6B DUP7 DUP4 PUSH2 0x1B26 JUMP JUMPDEST SWAP6 POP DUP1 NOT DUP5 AND SWAP4 POP DUP1 DUP7 AND DUP5 OR SWAP3 POP POP POP SWAP4 SWAP3 POP POP POP JUMP JUMPDEST PUSH0 DUP2 SWAP1 POP SWAP2 SWAP1 POP JUMP JUMPDEST PUSH0 PUSH2 0x1BA6 PUSH2 0x1BA1 PUSH2 0x1B9C DUP5 PUSH2 0x1039 JUMP JUMPDEST PUSH2 0x1B83 JUMP JUMPDEST PUSH2 0x1039 JUMP JUMPDEST SWAP1 POP SWAP2 SWAP1 POP JUMP JUMPDEST PUSH0 DUP2 SWAP1 POP SWAP2 SWAP1 POP JUMP JUMPDEST PUSH2 0x1BBF DUP4 PUSH2 0x1B8C JUMP JUMPDEST PUSH2 0x1BD3 PUSH2 0x1BCB DUP3 PUSH2 0x1BAD JUMP JUMPDEST DUP5 DUP5 SLOAD PUSH2 0x1B32 JUMP JUMPDEST DUP3 SSTORE POP POP POP POP JUMP JUMPDEST PUSH0 SWAP1 JUMP JUMPDEST PUSH2 0x1BE7 PUSH2 0x1BDB JUMP JUMPDEST PUSH2 0x1BF2 DUP2 DUP5 DUP5 PUSH2 0x1BB6 JUMP JUMPDEST POP POP POP JUMP JUMPDEST JUMPDEST DUP2 DUP2 LT ISZERO PUSH2 0x1C15 JUMPI PUSH2 0x1C0A PUSH0 DUP3 PUSH2 0x1BDF JUMP JUMPDEST PUSH1 0x1 DUP2 ADD SWAP1 POP PUSH2 0x1BF8 JUMP JUMPDEST POP POP JUMP JUMPDEST PUSH1 0x1F DUP3 GT ISZERO PUSH2 0x1C5A JUMPI PUSH2 0x1C2B DUP2 PUSH2 0x1B05 JUMP JUMPDEST PUSH2 0x1C34 DUP5 PUSH2 0x1B17 JUMP JUMPDEST DUP2 ADD PUSH1 0x20 DUP6 LT ISZERO PUSH2 0x1C43 JUMPI DUP2 SWAP1 POP JUMPDEST PUSH2 0x1C57 PUSH2 0x1C4F DUP6 PUSH2 0x1B17 JUMP JUMPDEST DUP4 ADD DUP3 PUSH2 0x1BF7 JUMP JUMPDEST POP POP JUMPDEST POP POP POP JUMP JUMPDEST PUSH0 DUP3 DUP3 SHR SWAP1 POP SWAP3 SWAP2 POP POP JUMP JUMPDEST PUSH0 PUSH2 0x1C7A PUSH0 NOT DUP5 PUSH1 0x8 MUL PUSH2 0x1C5F JUMP JUMPDEST NOT DUP1 DUP4 AND SWAP2 POP POP SWAP3 SWAP2 POP POP JUMP JUMPDEST PUSH0 PUSH2 0x1C92 DUP4 DUP4 PUSH2 0x1C6B JUMP JUMPDEST SWAP2 POP DUP3 PUSH1 0x2 MUL DUP3 OR SWAP1 POP SWAP3 SWAP2 POP POP JUMP JUMPDEST PUSH2 0x1CAB DUP3 PUSH2 0x1589 JUMP JUMPDEST PUSH8 0xFFFFFFFFFFFFFFFF DUP2 GT ISZERO PUSH2 0x1CC4 JUMPI PUSH2 0x1CC3 PUSH2 0x111C JUMP JUMPDEST JUMPDEST PUSH2 0x1CCE DUP3 SLOAD PUSH2 0x1AD5 JUMP JUMPDEST PUSH2 0x1CD9 DUP3 DUP3 DUP6 PUSH2 0x1C19 JUMP JUMPDEST PUSH0 PUSH1 0x20 SWAP1 POP PUSH1 0x1F DUP4 GT PUSH1 0x1 DUP2 EQ PUSH2 0x1D0A JUMPI PUSH0 DUP5 ISZERO PUSH2 0x1CF8 JUMPI DUP3 DUP8 ADD MLOAD SWAP1 POP JUMPDEST PUSH2 0x1D02 DUP6 DUP3 PUSH2 0x1C87 JUMP JUMPDEST DUP7 SSTORE POP PUSH2 0x1D69 JUMP JUMPDEST PUSH1 0x1F NOT DUP5 AND PUSH2 0x1D18 DUP7 PUSH2 0x1B05 JUMP JUMPDEST PUSH0 JUMPDEST DUP3 DUP2 LT ISZERO PUSH2 0x1D3F JUMPI DUP5 DUP10 ADD MLOAD DUP3 SSTORE PUSH1 0x1 DUP3 ADD SWAP2 POP PUSH1 0x20 DUP6 ADD SWAP5 POP PUSH1 0x20 DUP2 ADD SWAP1 POP PUSH2 0x1D1A JUMP JUMPDEST DUP7 DUP4 LT ISZERO PUSH2 0x1D5C JUMPI DUP5 DUP10 ADD MLOAD PUSH2 0x1D58 PUSH1 0x1F DUP10 AND DUP3 PUSH2 0x1C6B JUMP JUMPDEST DUP4 SSTORE POP JUMPDEST PUSH1 0x1 PUSH1 0x2 DUP9 MUL ADD DUP9 SSTORE POP POP POP JUMPDEST POP POP POP POP POP POP JUMP JUMPDEST PUSH0 DUP2 SWAP1 POP SWAP3 SWAP2 POP POP JUMP JUMPDEST PUSH0 PUSH2 0x1D85 DUP3 PUSH2 0x1589 JUMP JUMPDEST PUSH2 0x1D8F DUP2 DUP6 PUSH2 0x1D71 JUMP JUMPDEST SWAP4 POP PUSH2 0x1D9F DUP2 DUP6 PUSH1 0x20 DUP7 ADD PUSH2 0x13D9 JUMP JUMPDEST DUP1 DUP5 ADD SWAP2 POP POP SWAP3 SWAP2 POP POP JUMP JUMPDEST PUSH0 PUSH2 0x1DB6 DUP3 DUP5 PUSH2 0x1D7B JUMP JUMPDEST SWAP2 POP DUP2 SWAP1 POP SWAP3 SWAP2 POP POP JUMP JUMPDEST PUSH2 0x1DCA DUP2 PUSH2 0xFFE JUMP JUMPDEST DUP3 MSTORE POP POP JUMP JUMPDEST PUSH2 0x1DD9 DUP2 PUSH2 0x184F JUMP JUMPDEST DUP3 MSTORE POP POP JUMP JUMPDEST PUSH2 0x1DE8 DUP2 PUSH2 0x10D0 JUMP JUMPDEST DUP3 MSTORE POP POP JUMP JUMPDEST PUSH0 DUP2 MLOAD SWAP1 POP SWAP2 SWAP1 POP JUMP JUMPDEST PUSH0 DUP3 DUP3 MSTORE PUSH1 0x20 DUP3 ADD SWAP1 POP SWAP3 SWAP2 POP POP JUMP JUMPDEST PUSH0 DUP2 SWAP1 POP PUSH1 0x20 DUP3 ADD SWAP1 POP SWAP2 SWAP1 POP JUMP JUMPDEST PUSH2 0x1E20 DUP2 PUSH2 0x1039 JUMP JUMPDEST DUP3 MSTORE POP POP JUMP JUMPDEST PUSH0 DUP3 DUP3 MSTORE PUSH1 0x20 DUP3 ADD SWAP1 POP SWAP3 SWAP2 POP POP JUMP JUMPDEST PUSH0 PUSH2 0x1E40 DUP3 PUSH2 0x13BF JUMP JUMPDEST PUSH2 0x1E4A DUP2 DUP6 PUSH2 0x1E26 JUMP JUMPDEST SWAP4 POP PUSH2 0x1E5A DUP2 DUP6 PUSH1 0x20 DUP7 ADD PUSH2 0x13D9 JUMP JUMPDEST PUSH2 0x1E63 DUP2 PUSH2 0x110C JUMP JUMPDEST DUP5 ADD SWAP2 POP POP SWAP3 SWAP2 POP POP JUMP JUMPDEST PUSH0 PUSH1 0xA0 DUP4 ADD PUSH0 DUP4 ADD MLOAD PUSH2 0x1E83 PUSH0 DUP7 ADD DUP3 PUSH2 0x1DD0 JUMP JUMPDEST POP PUSH1 0x20 DUP4 ADD MLOAD PUSH2 0x1E96 PUSH1 0x20 DUP7 ADD DUP3 PUSH2 0x1DC1 JUMP JUMPDEST POP PUSH1 0x40 DUP4 ADD MLOAD DUP5 DUP3 SUB PUSH1 0x40 DUP7 ADD MSTORE PUSH2 0x1EAE DUP3 DUP3 PUSH2 0x1E36 JUMP JUMPDEST SWAP2 POP POP PUSH1 0x60 DUP4 ADD MLOAD DUP5 DUP3 SUB PUSH1 0x60 DUP7 ADD MSTORE PUSH2 0x1EC8 DUP3 DUP3 PUSH2 0x1E36 JUMP JUMPDEST SWAP2 POP POP PUSH1 0x80 DUP4 ADD MLOAD PUSH2 0x1EDD PUSH1 0x80 DUP7 ADD DUP3 PUSH2 0x1DC1 JUMP JUMPDEST POP DUP1 SWAP2 POP POP SWAP3 SWAP2 POP POP JUMP JUMPDEST PUSH0 PUSH1 0x40 DUP4 ADD PUSH0 DUP4 ADD MLOAD PUSH2 0x1EFD PUSH0 DUP7 ADD DUP3 PUSH2 0x1E17 JUMP JUMPDEST POP PUSH1 0x20 DUP4 ADD MLOAD DUP5 DUP3 SUB PUSH1 0x20 DUP7 ADD MSTORE PUSH2 0x1F15 DUP3 DUP3 PUSH2 0x1E6E JUMP JUMPDEST SWAP2 POP POP DUP1 SWAP2 POP POP SWAP3 SWAP2 POP POP JUMP JUMPDEST PUSH0 PUSH2 0x1F2D DUP4 DUP4 PUSH2 0x1EE8 JUMP JUMPDEST SWAP1 POP SWAP3 SWAP2 POP POP JUMP JUMPDEST PUSH0 PUSH1 0x20 DUP3 ADD SWAP1 POP SWAP2 SWAP1 POP JUMP JUMPDEST PUSH0 PUSH2 0x1F4B DUP3 PUSH2 0x1DEE JUMP JUMPDEST PUSH2 0x1F55 DUP2 DUP6 PUSH2 0x1DF8 JUMP JUMPDEST SWAP4 POP DUP4 PUSH1 0x20 DUP3 MUL DUP6 ADD PUSH2 0x1F67 DUP6 PUSH2 0x1E08 JUMP JUMPDEST DUP1 PUSH0 JUMPDEST DUP6 DUP2 LT ISZERO PUSH2 0x1FA2 JUMPI DUP5 DUP5 SUB DUP10 MSTORE DUP2 MLOAD PUSH2 0x1F83 DUP6 DUP3 PUSH2 0x1F22 JUMP JUMPDEST SWAP5 POP PUSH2 0x1F8E DUP4 PUSH2 0x1F35 JUMP JUMPDEST SWAP3 POP PUSH1 0x20 DUP11 ADD SWAP10 POP POP PUSH1 0x1 DUP2 ADD SWAP1 POP PUSH2 0x1F6A JUMP JUMPDEST POP DUP3 SWAP8 POP DUP8 SWAP6 POP POP POP POP POP POP SWAP3 SWAP2 POP POP JUMP JUMPDEST PUSH1 0x60 DUP3 ADD PUSH0 DUP3 ADD MLOAD PUSH2 0x1FC8 PUSH0 DUP6 ADD DUP3 PUSH2 0x1DDF JUMP JUMPDEST POP PUSH1 0x20 DUP3 ADD MLOAD PUSH2 0x1FDB PUSH1 0x20 DUP6 ADD DUP3 PUSH2 0x1DC1 JUMP JUMPDEST POP PUSH1 0x40 DUP3 ADD MLOAD PUSH2 0x1FEE PUSH1 0x40 DUP6 ADD DUP3 PUSH2 0x1DDF JUMP JUMPDEST POP POP POP POP JUMP JUMPDEST PUSH0 PUSH2 0x160 DUP4 ADD PUSH0 DUP4 ADD MLOAD DUP5 DUP3 SUB PUSH0 DUP7 ADD MSTORE PUSH2 0x200F DUP3 DUP3 PUSH2 0x1634 JUMP JUMPDEST SWAP2 POP POP PUSH1 0x20 DUP4 ADD MLOAD DUP5 DUP3 SUB PUSH1 0x20 DUP7 ADD MSTORE PUSH2 0x2029 DUP3 DUP3 PUSH2 0x1634 JUMP JUMPDEST SWAP2 POP POP PUSH1 0x40 DUP4 ADD MLOAD PUSH2 0x203E PUSH1 0x40 DUP7 ADD DUP3 PUSH2 0x1DC1 JUMP JUMPDEST POP PUSH1 0x60 DUP4 ADD MLOAD DUP5 DUP3 SUB PUSH1 0x60 DUP7 ADD MSTORE PUSH2 0x2056 DUP3 DUP3 PUSH2 0x1634 JUMP JUMPDEST SWAP2 POP POP PUSH1 0x80 DUP4 ADD MLOAD PUSH2 0x206B PUSH1 0x80 DUP7 ADD DUP3 PUSH2 0x1DD0 JUMP JUMPDEST POP PUSH1 0xA0 DUP4 ADD MLOAD PUSH2 0x207E PUSH1 0xA0 DUP7 ADD DUP3 PUSH2 0x1DDF JUMP JUMPDEST POP PUSH1 0xC0 DUP4 ADD MLOAD PUSH2 0x2091 PUSH1 0xC0 DUP7 ADD DUP3 PUSH2 0x1DD0 JUMP JUMPDEST POP PUSH1 0xE0 DUP4 ADD MLOAD DUP5 DUP3 SUB PUSH1 0xE0 DUP7 ADD MSTORE PUSH2 0x20A9 DUP3 DUP3 PUSH2 0x1F41 JUMP JUMPDEST SWAP2 POP POP PUSH2 0x100 DUP4 ADD MLOAD PUSH2 0x20C0 PUSH2 0x100 DUP7 ADD DUP3 PUSH2 0x1FB4 JUMP JUMPDEST POP DUP1 SWAP2 POP POP SWAP3 SWAP2 POP POP JUMP JUMPDEST PUSH0 PUSH1 0x20 DUP3 ADD SWAP1 POP DUP2 DUP2 SUB PUSH0 DUP4 ADD MSTORE PUSH2 0x20E3 DUP2 DUP5 PUSH2 0x1FF4 JUMP JUMPDEST SWAP1 POP SWAP3 SWAP2 POP POP JUMP JUMPDEST PUSH0 PUSH2 0x20F5 DUP3 PUSH2 0xFDF JUMP JUMPDEST SWAP1 POP SWAP2 SWAP1 POP JUMP JUMPDEST PUSH2 0x2105 DUP2 PUSH2 0x20EB JUMP JUMPDEST DUP2 EQ PUSH2 0x210F JUMPI PUSH0 DUP1 REVERT JUMPDEST POP JUMP JUMPDEST PUSH0 DUP2 MLOAD SWAP1 POP PUSH2 0x2120 DUP2 PUSH2 0x20FC JUMP JUMPDEST SWAP3 SWAP2 POP POP JUMP JUMPDEST PUSH0 DUP1 PUSH1 0x40 DUP4 DUP6 SUB SLT ISZERO PUSH2 0x213C JUMPI PUSH2 0x213B PUSH2 0xFD7 JUMP JUMPDEST JUMPDEST PUSH0 PUSH2 0x2149 DUP6 DUP3 DUP7 ADD PUSH2 0x17E2 JUMP JUMPDEST SWAP3 POP POP PUSH1 0x20 PUSH2 0x215A DUP6 DUP3 DUP7 ADD PUSH2 0x2112 JUMP JUMPDEST SWAP2 POP POP SWAP3 POP SWAP3 SWAP1 POP JUMP JUMPDEST PUSH0 DUP2 MLOAD SWAP1 POP SWAP2 SWAP1 POP JUMP JUMPDEST PUSH0 DUP3 DUP3 MSTORE PUSH1 0x20 DUP3 ADD SWAP1 POP SWAP3 SWAP2 POP POP JUMP JUMPDEST PUSH0 DUP2 SWAP1 POP PUSH1 0x20 DUP3 ADD SWAP1 POP SWAP2 SWAP1 POP JUMP JUMPDEST PUSH0 PUSH2 0x2198 DUP4 DUP4 PUSH2 0x1E36 JUMP JUMPDEST SWAP1 POP SWAP3 SWAP2 POP POP JUMP JUMPDEST PUSH0 PUSH1 0x20 DUP3 ADD SWAP1 POP SWAP2 SWAP1 POP JUMP JUMPDEST PUSH0 PUSH2 0x21B6 DUP3 PUSH2 0x2164 JUMP JUMPDEST PUSH2 0x21C0 DUP2 DUP6 PUSH2 0x216E JUMP JUMPDEST SWAP4 POP DUP4 PUSH1 0x20 DUP3 MUL DUP6 ADD PUSH2 0x21D2 DUP6 PUSH2 0x217E JUMP JUMPDEST DUP1 PUSH0 JUMPDEST DUP6 DUP2 LT ISZERO PUSH2 0x220D JUMPI DUP5 DUP5 SUB DUP10 MSTORE DUP2 MLOAD PUSH2 0x21EE DUP6 DUP3 PUSH2 0x218D JUMP JUMPDEST SWAP5 POP PUSH2 0x21F9 DUP4 PUSH2 0x21A0 JUMP JUMPDEST SWAP3 POP PUSH1 0x20 DUP11 ADD SWAP10 POP POP PUSH1 0x1 DUP2 ADD SWAP1 POP PUSH2 0x21D5 JUMP JUMPDEST POP DUP3 SWAP8 POP DUP8 SWAP6 POP POP POP POP POP POP SWAP3 SWAP2 POP POP JUMP JUMPDEST PUSH0 PUSH1 0x60 DUP3 ADD SWAP1 POP PUSH2 0x2232 PUSH0 DUP4 ADD DUP7 PUSH2 0x1287 JUMP JUMPDEST PUSH2 0x223F PUSH1 0x20 DUP4 ADD DUP6 PUSH2 0x10DC JUMP JUMPDEST DUP2 DUP2 SUB PUSH1 0x40 DUP4 ADD MSTORE PUSH2 0x2251 DUP2 DUP5 PUSH2 0x21AC JUMP JUMPDEST SWAP1 POP SWAP5 SWAP4 POP POP POP POP JUMP JUMPDEST PUSH0 DUP2 MLOAD SWAP1 POP PUSH2 0x2269 DUP2 PUSH2 0x144D JUMP JUMPDEST SWAP3 SWAP2 POP POP JUMP JUMPDEST PUSH0 PUSH8 0xFFFFFFFFFFFFFFFF DUP3 GT ISZERO PUSH2 0x2289 JUMPI PUSH2 0x2288 PUSH2 0x111C JUMP JUMPDEST JUMPDEST PUSH1 0x20 DUP3 MUL SWAP1 POP PUSH1 0x20 DUP2 ADD SWAP1 POP SWAP2 SWAP1 POP JUMP JUMPDEST PUSH0 DUP1 REVERT JUMPDEST PUSH0 PUSH2 0x22B0 PUSH2 0x22AB DUP5 PUSH2 0x226F JUMP JUMPDEST PUSH2 0x117A JUMP JUMPDEST SWAP1 POP DUP1 DUP4 DUP3 MSTORE PUSH1 0x20 DUP3 ADD SWAP1 POP PUSH1 0x20 DUP5 MUL DUP4 ADD DUP6 DUP2 GT ISZERO PUSH2 0x22D3 JUMPI PUSH2 0x22D2 PUSH2 0x229A JUMP JUMPDEST JUMPDEST DUP4 JUMPDEST DUP2 DUP2 LT ISZERO PUSH2 0x22FC JUMPI DUP1 PUSH2 0x22E8 DUP9 DUP3 PUSH2 0x225B JUMP JUMPDEST DUP5 MSTORE PUSH1 0x20 DUP5 ADD SWAP4 POP POP PUSH1 0x20 DUP2 ADD SWAP1 POP PUSH2 0x22D5 JUMP JUMPDEST POP POP POP SWAP4 SWAP3 POP POP POP JUMP JUMPDEST PUSH0 DUP3 PUSH1 0x1F DUP4 ADD SLT PUSH2 0x231A JUMPI PUSH2 0x2319 PUSH2 0x1104 JUMP JUMPDEST JUMPDEST DUP2 MLOAD PUSH2 0x232A DUP5 DUP3 PUSH1 0x20 DUP7 ADD PUSH2 0x229E JUMP JUMPDEST SWAP2 POP POP SWAP3 SWAP2 POP POP JUMP JUMPDEST PUSH0 DUP1 PUSH0 PUSH1 0x60 DUP5 DUP7 SUB SLT ISZERO PUSH2 0x234A JUMPI PUSH2 0x2349 PUSH2 0xFD7 JUMP JUMPDEST JUMPDEST PUSH0 PUSH2 0x2357 DUP7 DUP3 DUP8 ADD PUSH2 0x17E2 JUMP JUMPDEST SWAP4 POP POP PUSH1 0x20 PUSH2 0x2368 DUP7 DUP3 DUP8 ADD PUSH2 0x225B JUMP JUMPDEST SWAP3 POP POP PUSH1 0x40 DUP5 ADD MLOAD PUSH8 0xFFFFFFFFFFFFFFFF DUP2 GT ISZERO PUSH2 0x2389 JUMPI PUSH2 0x2388 PUSH2 0xFDB JUMP JUMPDEST JUMPDEST PUSH2 0x2395 DUP7 DUP3 DUP8 ADD PUSH2 0x2306 JUMP JUMPDEST SWAP2 POP POP SWAP3 POP SWAP3 POP SWAP3 JUMP JUMPDEST PUSH32 0x4E487B7100000000000000000000000000000000000000000000000000000000 PUSH0 MSTORE PUSH1 0x21 PUSH1 0x4 MSTORE PUSH1 0x24 PUSH0 REVERT INVALID LOG2 PUSH5 0x6970667358 0x22 SLT KECCAK256 0xF DUP10 SWAP7 CALLVALUE 0xB2 0xA8 DUP5 PUSH28 0xF591FE52D28B9370B75FA40260B714ED2CD9578F81318FA764736F6C PUSH4 0x4300081A STOP CALLER "
		},
		"gasEstimates": {
			"creation": {
				"codeDepositCost": "1843600",
				"executionCost": "157652",
				"totalCost": "2001252"
			},
			"external": {
				"getToilets()": "infinite",
				"redirectForToken(address,bytes)": "infinite",
				"registerToilet(string,string,string,int64,string)": "infinite",
				"toiletTokens(string)": "infinite",
				"toilets(uint256)": "infinite",
				"transferFrom(address,address,address,uint256)": "infinite",
				"transferFromNFT(address,address,address,uint256)": "infinite"
			}
		},
		"methodIdentifiers": {
			"getToilets()": "f21c59f3",
			"redirectForToken(address,bytes)": "618dc65e",
			"registerToilet(string,string,string,int64,string)": "a92197ab",
			"toiletTokens(string)": "20531860",
			"toilets(uint256)": "b1960f59",
			"transferFrom(address,address,address,uint256)": "15dacbea",
			"transferFromNFT(address,address,address,uint256)": "9b23d3d9"
		}
	},
	"abi": [
		{
			"inputs": [],
			"stateMutability": "nonpayable",
			"type": "constructor"
		},
		{
			"anonymous": false,
			"inputs": [
				{
					"indexed": false,
					"internalType": "bool",
					"name": "",
					"type": "bool"
				},
				{
					"indexed": false,
					"internalType": "bytes",
					"name": "",
					"type": "bytes"
				}
			],
			"name": "CallResponseEvent",
			"type": "event"
		},
		{
			"inputs": [],
			"name": "getToilets",
			"outputs": [
				{
					"internalType": "string[]",
					"name": "",
					"type": "string[]"
				}
			],
			"stateMutability": "view",
			"type": "function"
		},
		{
			"inputs": [
				{
					"internalType": "address",
					"name": "token",
					"type": "address"
				},
				{
					"internalType": "bytes",
					"name": "encodedFunctionSelector",
					"type": "bytes"
				}
			],
			"name": "redirectForToken",
			"outputs": [
				{
					"internalType": "int256",
					"name": "responseCode",
					"type": "int256"
				},
				{
					"internalType": "bytes",
					"name": "response",
					"type": "bytes"
				}
			],
			"stateMutability": "nonpayable",
			"type": "function"
		},
		{
			"inputs": [
				{
					"internalType": "string",
					"name": "name",
					"type": "string"
				},
				{
					"internalType": "string",
					"name": "symbol",
					"type": "string"
				},
				{
					"internalType": "string",
					"name": "memo",
					"type": "string"
				},
				{
					"internalType": "int64",
					"name": "maxSupply",
					"type": "int64"
				},
				{
					"internalType": "string",
					"name": "uri",
					"type": "string"
				}
			],
			"name": "registerToilet",
			"outputs": [
				{
					"internalType": "address",
					"name": "",
					"type": "address"
				}
			],
			"stateMutability": "nonpayable",
			"type": "function"
		},
		{
			"inputs": [
				{
					"internalType": "string",
					"name": "",
					"type": "string"
				}
			],
			"name": "toiletTokens",
			"outputs": [
				{
					"internalType": "address",
					"name": "",
					"type": "address"
				}
			],
			"stateMutability": "view",
			"type": "function"
		},
		{
			"inputs": [
				{
					"internalType": "uint256",
					"name": "",
					"type": "uint256"
				}
			],
			"name": "toilets",
			"outputs": [
				{
					"internalType": "string",
					"name": "",
					"type": "string"
				}
			],
			"stateMutability": "view",
			"type": "function"
		},
		{
			"inputs": [
				{
					"internalType": "address",
					"name": "token",
					"type": "address"
				},
				{
					"internalType": "address",
					"name": "from",
					"type": "address"
				},
				{
					"internalType": "address",
					"name": "to",
					"type": "address"
				},
				{
					"internalType": "uint256",
					"name": "amount",
					"type": "uint256"
				}
			],
			"name": "transferFrom",
			"outputs": [
				{
					"internalType": "int64",
					"name": "responseCode",
					"type": "int64"
				}
			],
			"stateMutability": "nonpayable",
			"type": "function"
		},
		{
			"inputs": [
				{
					"internalType": "address",
					"name": "token",
					"type": "address"
				},
				{
					"internalType": "address",
					"name": "from",
					"type": "address"
				},
				{
					"internalType": "address",
					"name": "to",
					"type": "address"
				},
				{
					"internalType": "uint256",
					"name": "serialNumber",
					"type": "uint256"
				}
			],
			"name": "transferFromNFT",
			"outputs": [
				{
					"internalType": "int64",
					"name": "responseCode",
					"type": "int64"
				}
			],
			"stateMutability": "nonpayable",
			"type": "function"
		}
	]
}